:020000040800F2
:10000000581B0020A1010008BF1A0008D5190008DC
:10001000BD1A0008D102000881210008000000007C
:100020000000000000000000000000004D1D00085E
:100030006903000800000000C11A00084F1D0008F5
:10004000BB010008BB010008BB010008BB010008A0
:10005000BB010008BB010008BB010008BB01000890
:10006000BB010008BB010008BB010008BB01000880
:10007000BB010008BB010008BB010008BB01000870
:10008000BB010008BB010008BB010008BB01000860
:10009000BB010008BB010008BB010008BB01000850
:1000A000BB010008BB010008BB010008BB01000840
:1000B000BB010008BB010008BB010008BB01000830
:1000C000BB010008BB010008BB010008BB01000820
:1000D000BB01000875210008BB010008BB01000836
:1000E000BB010008BB010008BB010008F91D0008A6
:1000F000BB010008BB010008BB010008BB010008F0
:10010000BB010008BB010008BB010008BB010008DF
:10011000BB010008BB010008BB010008BB010008CF
:10012000BB010008BB010008D5020008BB010008A4
:10013000BB010008BB010008BB010008BB010008AF
:10014000BB010008BB010008BB010008BB0100089F
:10015000BB010008BB010008E1020008BB01000868
:10016000BB010008BB010008BB010008BB0100087F
:10017000BB010008BB010008BB0100080000000033
:10018000BB010008BB010008DFF810D000F08EF8BA
:1001900000480047B1280008AFF30080581B00203A
:1001A0000648804706480047FEE7FEE7FEE7FEE711
:1001B000FEE7FEE7FEE7FEE7FEE7FEE7E91D0008D3
:1001C000890100082DE9F05F0546002092469B4614
:1001D00088460646814640241BE02846414647465D
:1001E000224600F053F853465A46C01A914110D3A4
:1001F00011461846224600F03AF82D1A67EB01081E
:100200004F4622460120002100F031F817EB00098B
:100210004E41201EA4F10104DFDC484631462A4647
:100220004346BDE8F09F40EA01039B0703D009E085
:1002300008C9121F08C0042AFAD203E011F8013BD2
:1002400000F8013B521EF9D27047D2B201E000F82B
:10025000012B491EFBD270470022F6E710B513466A
:100260000A4604461946FFF7F0FF204610BD202A33
:1002700004DB203A00FA02F1002070479140C2F1FD
:10028000200320FA03F3194390407047202A04DB2F
:10029000203A21FA02F00021704721FA02F3D040FF
:1002A000C2F120029140084319467047064C074DA1
:1002B00006E0E06840F0010394E807009847103436
:1002C000AC42F6D3FFF764FF5C3800087C380008C6
:1002D000FEE70000014800F0B3B900001C01002057
:1002E000014800F0ADB900007C010020016818232E
:1002F000CAB2103AB2FBF3F2054B6FF30901032ABD
:100300009B5CC36500D9091D8165084670470000E4
:10031000CD37000810B5014600208B698A6A4FF07E
:10032000C07453B1B3F5005F15D072B1012A0CD07F
:10033000022A0AD0032A09D104E01AB1012A06D000
:10034000022A03D1C96AC90100D5012010BDC96ABA
:10035000A142FAD010BD002AF7D0012AF2D0022A19
:10036000F3D0032AF3D010BD704772B6FEE7000049
:10037000002229B101291AD002291BD04FF4407262
:100380000E490B6823F440730B600B6813430B603A
:100390000A6822F078020A600A68022303EBC000B0
:1003A00002430A60086840F48030086070474FF4E8
:1003B0008072E5E74FF40072E2E70000103C024073
:1003C0001348016889050FD5016821F400710160A7
:1003D000016841F400610160016821F4006101607D
:1003E000016841F400710160016849050FD5016899
:1003F00021F480610160016841F48051016001686D
:1004000021F480510160016841F48061016070470E
:10041000003C024008490A6822F440720A600A68F7
:1004200042F004020A600A684FF4803343EA002075
:1004300002430A6070470000103C0240064A1368FD
:1004400023F44073136013681360136843F00103CF
:100450001360017070470000103C0240094910B55C
:100460000C6824F440740C600C6844F440740C6014
:100470000C6844F001040C600260BFF36F8F4360AE
:1004800010BD0000103C0240074A136823F440737B
:100490001360136843F480731360136843F001031F
:1004A0001360018070470000103C0240074A136847
:1004B00023F440731360136843F4007313601368EC
:1004C00043F001031360016070470000103C0240DC
:1004D00017490868C206174805D5C26942F01002DC
:1004E000C26110220A600A68920605D5C26942F00C
:1004F0000802C26120220A600A68520605D5C26954
:1005000042F00402C26140220A600A68120605D560
:10051000C26942F00202C26180220A600A68920740
:1005200005D5C26942F02002C2610220086070470E
:100530000C3C02402000002070B511490446002008
:10054000C86100F067FB06460E4D09E0601C07D04D
:1005500024B100F05FFB801BA04201D9032070BDD5
:100560002868C003F2D42868C00701D001202860A1
:10057000286810F0F200F2D0FFF7AAFF012070BD4A
:10058000200000200C3C02402DE9F0410446876D1C
:1005900000F040FB064694F835000025022806D0FE
:1005A0008020606584F834500120BDE8F081206827
:1005B000016821F0160101602068416921F0800185
:1005C0004161206C08B9A06C20B12068016821F05D
:1005D000080101602068016821F0010101600CE060
:1005E00000F018FB801B052807D920206065032038
:1005F00084F8350084F83450D7E720680068C007D5
:10060000EED194F85C103F208840B860012084F857
:10061000350084F834500020C7E790F835100229DF
:1006200003D08021416501207047052180F83510F5
:100630000068016821F0010101600020704700009E
:100640002DE9F84304464FF00009CDF800906348C7
:100650004FF41651A56D0068B0FBF1F72E6894F8C1
:100660005C10082000FA01F131420FD021680A68BD
:1006700052070BD50A6822F004020A6094F85C1055
:100680008840A860606D40F00100606594F85C10DF
:100690004FF0010808FA01F0304208D0216849699A
:1006A000090604D5A860606D40F00200606594F80A
:1006B0005C1004208840304208D02168096889070E
:1006C00004D5A860606D40F00400606594F85C108B
:1006D00010208840304218D021680968090714D5D5
:1006E000A86020680168490304D50068000308D5A4
:1006F000A16C07E00168C90503D4016821F0080175
:100700000160216C09B12046884794F85C102020D4
:100710008840304231D021680968C9062DD5A860CB
:1007200094F8350005282068016806D0490347D5AC
:10073000006800031DD4616C1CE021F0160101600B
:100740002068416921F080014161206C08B9A06CEA
:1007500020B12068016821F00801016094F85C1064
:100760003F208840A86084F8358084F83490216D5B
:100770001FE0E16B09B120468847606D00282BD04F
:10078000606DC00714D0052084F83500206801682A
:1007900021F0010101600098401C0090B84203D88C
:1007A00020680068C007F6D184F8358084F834905A
:1007B000E16C002910D001B02046BDE8F0430847A5
:1007C0000168C905D5D4016821F01001016084F8E1
:1007D000358084F83490CCE7BDE8F8834C000020E5
:1007E0002DE9F041044600F015FA06465CB10220FE
:1007F00084F83500002584F834502068016821F021
:10080000010101600DE00120BDE8F08100F002FA75
:10081000801B052805D920206065032084F8350059
:10082000F2E720680068C007F0D12268116820480C
:100830000140D4E901031843D4E903363343184394
:1008400063691843A3691843E3691843236A18438B
:100850000843616A042903D1D4E90B1319430843FF
:10086000106020684069666A20F0070130460E4338
:10087000012704280CD1A06A0643E06A40B1204653
:10088000FFF748FD20B14020606584F83570BAE775
:10089000206846612046FFF729FD94F85C203F213F
:1008A00091408160656584F835700020ACE70000F8
:1008B0003F8010F02DE9F047044622480F46017EA4
:1008C00001290AD00121804601764CF25039484670
:1008D000FFF732FE020003D02FE00220BDE8F087D0
:1008E0004FF0FF3038602068174D012801D0A6680E
:1008F0001CE0207C6168FFF78DFD4846FFF71CFE79
:100900000246286820F00400286014E0217C30466C
:10091000FFF72EFD4846FFF70FFE0200286820F083
:100920007A00286001D03E6005E0761CD4E9021010
:100930000844B042EAD8FFF743FD002188F81810B8
:100940001046CBE720000020103C0240034801681D
:1009500041F000410160002070470000103C02405F
:100960002DE9F0471B4E05461446307E1F4689464A
:10097000012808D0012030764CF250384046FFF76D
:10098000DBFD18B114E00220BDE8F0879DB1012D18
:1009900016D0022D19D022463B464846FFF75EFD91
:1009A0004046FFF7C9FD0C490A6822F001020A60BF
:1009B00000213176E8E7E1B24846FFF73FFDEFE777
:1009C000A1B24846FFF760FDEAE721464846FFF737
:1009D0006DFDE5E720000020103C024007490020A3
:1009E0000A68002A09DA054A054B0C3A1360054BE0
:1009F00013600968002900DA01207047103C0240AA
:100A000023016745AB89EFCD2DE9F84FDFF8BCA195
:100A10000022012503264FF00F090AF1040BAAF169
:100A2000040E00BF0B6805FA02F42340A34270D104
:100A30000F7907F00307012F01D0022F16D1876825
:100A40004FEA420806FA08FC27EA0C07D1F80CC066
:100A50000CFA08FC4CEA070CC0F808C04768A7432A
:100A60000C79C4F3001494403C4344600C79E44393
:100A7000A4070AD0C4684FEA420C06FA0CF7BC433C
:100A80008F6807FA0CF72743C7600C7904F003045A
:100A9000022C12D1D40800EB840CDCF8204057075C
:100AA000FF0E09FA07F824EA0804D1F8108008FAC2
:100AB00007F848EA0408CCF8208004684FEA420CA2
:100AC00006FA0CF7BC430F7907F0030707FA0CF797
:100AD000274307604C6814F4403F70D03C4C2768B3
:100AE00047F480472760246822F0030704F4804419
:100AF0000094384C07EB040CDCF8084897074FEAE1
:100B0000177809FA08F7BC43334FB84202D10027DF
:100B100024E054E0314FB84201D101271EE0304FAC
:100B2000B84201D1022719E02E4FB84201D1032764
:100B300014E02D4FB84201D104270FE02B4FB842EB
:100B400001D105270AE02A4FB84201D1062705E066
:100B5000284FB84201D1072700E0082707FA08F715
:100B60002743CCF80878DAF800405746D1F804C09B
:100B70009C435FEACC2C00D51C433C60DBF8004072
:100B80005F46D1F804C09C435FEA8C2C00D51C431F
:100B90003C60DEF800407746D1F804C09C435FEA31
:100BA0008C3C00D51C433C60084F083F3C68D1F8A2
:100BB00004C09C435FEACC3C00D51C433C60521C03
:100BC000102AFFF42FAFBDE8F88F0000083C014069
:100BD000443802400030014000000240000402405E
:100BE00000080240000C02400010024000140240C5
:100BF00000180240001C0240426921EA02030A4038
:100C000043EA0241816170470AB18161704709047A
:100C1000FBE70000014880687047000040000020AA
:100C200002488168027811448160704740000020CA
:100C30000B4810B5016841F400710160016841F48E
:100C400080610160016841F480710160032000F05F
:100C50009BF80F2000F006F800F050F8002010BDBF
:100C6000003C024030B505461F4887B000240168AB
:100C700041F040010160006806A900F040000090CA
:100C800001A800F02DF90498A8B100F049F940003E
:100C90001649174AB0FBF1F11648491E026040F2AE
:100CA000E732C0E90324C0E90114846100F042FB8B
:100CB000040003D015E000F033F9E9E70D4800F037
:100CC00067FB04000DD12B2000F030F8102D07D267
:100CD000002229462B2000F037F80748056000E085
:100CE000012407B0204630BD4038024040420F008A
:100CF00000180040DC010020440000200A4808B52C
:100D0000016841F480410160006800F48040009077
:100D10000548001F016841F080510160006800F043
:100D20008050009008BD000044380240002809DBD4
:100D300000F01F02012191404009800000F1E020F5
:100D4000C0F8001170470000F0B40E4B1B680C4651
:100D5000C3F30223C3F10705042D00D90425191D8F
:100D6000072901D2002300E0DB1E012606FA05F167
:100D7000491E214099409E40761E16403143F0BCEA
:100D800001F08ABB0CED00E0064900F0070208689C
:100D90004FF6FF03184040EA0220034A1043086060
:100DA000704700000CED00E00000FA052DE9F04767
:100DB0000E46050065D0DFF81481D8F80000F7B2C0
:100DC00000F00700B04207D288F80070D8F80000A1
:100DD00000F00700B04254D128683D4C810712D57D
:100DE000400703D5206840F4E050206028780007D1
:100DF00003D5206840F4604020602068A96820F096
:100E0000F000084320602878C0072DD0304968687A
:100E10000839012812D0022813D0032811D00968FC
:100E2000890700292DDA216821F00301014321609F
:100E3000FFF7F0FE814641F2883A0EE00968890327
:100E4000EFE709688901ECE7FFF7E4FEA0EB090191
:100E5000514502D90320BDE8F0872068696800F099
:100E60000C00B0EB810FEFD1D8F80010404601F034
:100E70000701B14207D90770006800F00700B042CF
:100E800001D00120E7E72878400705D52068E96808
:100E900020F4E050084320602878000706D5206839
:100EA000296920F4604040EAC100206000F058F851
:100EB0002168084AC1F30311515CC8400649086023
:100EC00006480068FFF7CEFE0020C4E7003C024061
:100ED00008380240D53700084C00002044000020AC
:100EE0000F2202600C4A136803F003034360136887
:100EF00003F0F0038360136803F4E053C3601268E7
:100F00004FF4E05303EAD20202610448006800F0A3
:100F1000070008607047000008380240003C0240AB
:100F20000448054900680968044AC1F38221515CFC
:100F3000C84070474C00002008380240E5370008E0
:100F40000448054900680968044AC1F34231515C0C
:100F5000C84070474C00002008380240E5370008C0
:100F6000154810B5006810F00C02144813D014494D
:100F7000042A0FD0082A0ED10F4C241F22682368A0
:100F800002F03F025B0207D52068C0F38810A0FB87
:100F9000010106E0084610BD2168C1F38811A1FBDC
:100FA00000010023FFF70EF92168C1F30141491C3C
:100FB0004900B0FBF1F010BD083802400024F400F5
:100FC00040787D012DE9F84F04006ED02078DFF8DD
:100FD0004C93C007A9F104054AD009F10400016847
:100FE000C1F38101012908D00068C0F38100022803
:100FF0000AD1D9F80000400206D52868800337D509
:1010000060680028E1D033E06068B0F5803F10D020
:10101000B0F5A02F286810D020F480302860286810
:1010200020F4802028606068A8B1FFF7F3FD064631
:101030000DE0286840F48030F4E740F48020286018
:10104000F7E700BFFFF7E6FD801B642873D8286828
:101050008003F7D50CE0FFF7DDFD064605E000BF95
:10106000FFF7D8FD801B6428F0D828688003F7D4E8
:101070002078DFF8AC8280074FF0000A3ED5A74801
:10108000001D016811F00C0F08D00068C0F381004A
:1010900002280BD1D9F80000400207D42868800745
:1010A00016D5E068012800D112E033E1E068B8B15C
:1010B0000120C8F80000FFF7ADFD064605E000BFBF
:1010C000FFF7A8FD801B0228C0D828688007F7D545
:1010D0002868216920F0F80040EAC10028600DE08E
:1010E000C8F800A0FFF796FD064604E0FFF792FD62
:1010F000801B02281FD828688007F7D420780007B3
:1011000022D5864F87486169703771B1012101602E
:10111000FFF780FD064604E0FFF77CFD801B0228F8
:1011200009D838688007F7D50EE0C0F800A0FFF7AF
:1011300071FD064605E082E0FFF76CFD801B02288A
:101140007DD838688007F7D42078400768D5DFF865
:10115000CCB100270BF13C0BDBF80000C0000BD436
:10116000DBF8001041F08051CBF80010DBF80000F4
:10117000012700F0805000906B4E3068C00510D4FD
:10118000306840F480703060FFF744FD009005E067
:10119000FFF740FD0099401A022850D83068C0057A
:1011A000F6D55E4EA0686C3601280FD00528306851
:1011B00010D020F001003060306820F00400306072
:1011C000A068B8B1FFF726FD00900FE0306840F04E
:1011D0000100F4E740F004003060F7E7FFF71AFD84
:1011E0000099411A41F28830814266D83068800700
:1011F000F4D50EE0FFF70EFD009007E0FFF70AFDC3
:101200000099411A41F28830814256D830688007EF
:10121000F4D42FB1DBF8001021F08051CBF800108E
:10122000A069C8B33D49091D0968C1F381010229BC
:101230004AD00228504607D0C8F8600000E03CE0E1
:10124000FFF7E8FC04463BE04746C8F86000FFF7BC
:10125000E1FC064605E000BFFFF7DCFC801B02282E
:101260002BD828688001F7D4D4E907010843A16A84
:101270002E4A490802EB0141626A41EA82110843A1
:1012800094F82C1040EA0161C9F80010012038667A
:10129000FFF7C0FC044606E03EE000BFFFF7BAFCE3
:1012A000001B022809D828688001F7D534E000BF68
:1012B000FFF7B0FC001B022802D90320BDE8F88F1D
:1012C00028688001F4D427E00128F7D0D9F800007D
:1012D000E26900F4800191421CD1226A00F03F01D2
:1012E000914217D147F6C071626A0140B1EB821F8B
:1012F00010D1A26A4FF0FF3300F4403103EB5202E9
:10130000B1EB024F06D194F82C1000F07060B0EBF6
:10131000016F01D00120D1E70020CFE7043802405F
:1013200000004742800E4742007000400000FFFF6F
:101330007047704710B5040003D094F83D0010B119
:1013400007E0012010BD002084F83C00204600F09A
:101350001EF8022084F83D00211D206800F052FD97
:10136000012084F8460084F83E0084F83F0084F8A9
:10137000400084F8410084F8420084F8430084F877
:10138000440084F8450084F83D00002010BD7047FB
:1013900090F83D10012901D001207047022180F80A
:1013A0003D100168CA6842F00102CA600068114934
:1013B000884214D0B0F1804F11D00F4988420ED02E
:1013C0000E4988420BD00E49884208D00D49884208
:1013D00005D00D49884202D00C49884204D1816869
:1013E00001F00701062903D0016841F00101016005
:1013F0000020704700000140000400400008004049
:10140000000C004000040140004001400018004072
:1014100070472DE9F04104460068C66805694FF041
:101420000007A90713D5B10711D5F91E01610120E5
:101430002077206880698007204602D0FFF7E8FF08
:1014400004E000F07EF8204600F07CF8277768077B
:1014500016D5700714D521686FF0040008610220CA
:1014600020772068806910F4407F204602D0FFF783
:10147000CFFF04E000F065F8204600F063F827771E
:10148000280715D5300713D521686FF008000861CB
:10149000042020772068C0698007204602D0FFF72B
:1014A000B7FF04E000F04DF8204600F04BF8277736
:1014B000E80616D5F00614D521686FF01000086113
:1014C000082020772068C06910F4407F204602D0B1
:1014D000FFF79EFF04E000F034F8204600F032F8F9
:1014E0002777E80708D0F00706D021686FF00100E1
:1014F0000861204600F028F8280608D5300606D5F1
:1015000021686FF0800008612046FFF711FF680630
:1015100008D5700606D521686FF0400008612046A6
:1015200000F01CF8A8060AD5B00608D521686FF0AF
:10153000200008612046BDE8F041FFF7FABEBDE893
:10154000F08170477047000000680349884201D16C
:10155000FFF766BB704700000018004070477047F7
:1015600070470000F8B5016804460868CA684B690E
:1015700010F00F0F4FF0000559D003F0010602F4F0
:101580009077374365D0C10705D0D10503D5616C8D
:1015900041F001016164410705D5D90703D0616CB1
:1015A00041F002016164810705D5D90703D0616C60
:1015B00041F004016164010707D502F020013143C5
:1015C00003D0616C41F008016164616C00293AD07C
:1015D000800604D5900602D5204600F0A9FC2068BC
:1015E0004069616CC0F38010090700D460B32046E5
:1015F00000F077FC20684069400621D5206814304F
:1016000050E8001F21F0400140E80012002AF5D107
:10161000E06BA8B172490165E06BFEF7FEFF0028A0
:1016200011D0E06B016D01B0BDE8F04008478306C2
:101630000FD593060DD52046BDE8F84000F078BCE4
:101640002046FFF78DFFF8BD2046FFF789FF656450
:10165000F8BD266B2023012E7ED1C6067CD5D6068A
:101660007AD508684868009048694FF0020640063D
:101670004DD5E26B106840684FF480770004000C91
:101680003AD0A18D814237D9E085D069B8422DD0BA
:1016900020680C3050E8001F21F4807140E80012EF
:1016A000002AF5D12068143050E8001F21F0010114
:1016B00040E80012002AF5D12068143050E8001FDD
:1016C00021F0400140E80012002AF5D184F84230B0
:1016D000256320680C3050E8001F21F0100140E81D
:1016E0000012002AF5D1E06BFEF74EFF6663A08D75
:1016F000E18D401A81B206E0A18D8142A8D1D06966
:10170000B842A5D166632046FFF729FFF8BDA08D3A
:10171000E18D401A81B2E08D0028F7D00029F5D084
:1017200020680C3050E8002F22F4907240E8002727
:10173000002FF5D12068143050E8002F22F001026C
:1017400040E80027002FF5D184F842302563206857
:101750000C3050E8002F00E006E022F0100240E8D4
:101760000023002BF3D1CDE705062BD5150629D58F
:1017700094F841002128C9D1A068B0F5805F01D15B
:101780002069B0B1206A411C21622168007848605C
:10179000E08C401E0004000CE084B7D12068C168D2
:1017A00021F08001C1602068C16841F04001C16042
:1017B000F8BD206A0088C0F308004860206A801CD9
:1017C0002062E5E74006F3D55006F1D5CA68204609
:1017D00022F04002CA6084F8413000F0FAF8F8BD07
:1017E000D51E000870B5040004D094F8410000250F
:1017F00010B106E0012070BD84F84050204600F092
:1018000023F8242084F841002068C16821F40051A5
:10181000C160204600F0EEFB2068016921F4904190
:1018200001612068416921F02A0141612068C16895
:1018300041F40051C1606564202084F8410084F8BF
:1018400042006563002070BD2DE9F04186B0064678
:1018500014216846FEF700FD30493068884259D1AE
:101860002F480024016841F010010160006800F079
:10187000100005902A481438016841F00101016008
:101880000068694600F0010005904FF4C0600090C8
:101890000220CDE901040320039007200490214891
:1018A000FFF7B2F8214D20484FF000672860C5E9E6
:1018B00001744FF48068C5E903486C61AC61EC6168
:1018C0002C6228466C62FEF78BFF08B1FEF74DFDD7
:1018D000F563AE63154D144860357830E5E80207CE
:1018E0004020A5E81101114845F814496030AC6169
:1018F000EC612C626C62FEF773FF08B1FEF735FDF8
:10190000B563002211462520AE63FFF71DFA25209E
:10191000FFF70CFA06B0BDE8F081000000100140AE
:101920004438024000000240406402401C01002094
:1019300070472DE9F843044690F841009846164652
:101940000D46202802D00220BDE8F88385B17EB183
:1019500000206064212084F84100FFF75BF9A68431
:101960008146E684A0682027B0F5805F02D003E0BE
:101970000120E9E7206910B12E4600250EE000267F
:101980000CE08021204600F0BBFBA8B9C6B116F8D8
:10199000010B21684860E08C401EE084E08C4B46DF
:1019A0004FF00002CDF800800028EAD14FF040014E
:1019B000204600F0A5FB40B184F841700320C3E746
:1019C00035F8020BC0F30800E3E784F8417000200B
:1019D000BAE77047FEE700000D4808B5016841F41A
:1019E000800101600068002200F480000090114630
:1019F0003A20FFF7A9F93A20FFF798F9002211469B
:101A00004620FFF7A1F9BDE808404620FFF78EB950
:101A10003038024070B586B014216846FEF71CFCD1
:101A200016480024016841F020010160016801F0BE
:101A300020010591016841F080010160016801F019
:101A400080010591016841F00101016000680C4EC0
:101A500000F001004FF4E075059001222946304660
:101A6000FFF7D2F801200095CDE901046946304620
:101A70000394FEF7C9FF06B070BD00003038024085
:101A8000001402400C4810B50A4901604FF4E131DE
:101A90004160002181600C22C160C0E904128161B3
:101AA000C161FFF79FFE002803D0BDE81040FEF79C
:101AB0005CBC10BD00100140D4000020FEE7FEE732
:101AC000704700F05FBB00002DE9F04107460B486E
:101AD00015460E460078532801D000F053FBEFF373
:101AE0001184202080F311882A463146384600F0C0
:101AF00007F8E1B281F31188BDE8F0819C12002063
:101B000070B50E46144900EB400001EBC0051446C9
:101B1000E86A183520B101280FD0022805D113E05A
:101B2000284600F061FBA04201D2002411E02246C9
:101B30003146284600F07EFC0BE0284600F054FBBE
:101B4000A042F4D20446F2E73146284600F045FCB4
:101B50000446204670BD00009C1200200FB408B55A
:101B600004A900916A46039900F004F801B05DF8F9
:101B700014FB00002DE9F04798B0814607A80290B9
:101B800040204FF000080390CDF8108092460C469C
:101B90004046CDE9058900BF14F8011B002972D029
:101BA000252908D002A800F0F9FB05980028F3DAEF
:101BB00018B0BDE8F087002001212278232A1ED02A
:101BC0002B2A19D02D2A02D0302A08D102E040F069
:101BD000010001E040F00200641C0029EDD1002169
:101BE0002278A2F130030A2B0CD201EB810102EB27
:101BF00041013039641CF3E740F00400ECE740F0A9
:101C00000800E9E70026D2B235462E2A19D114F889
:101C1000012F2A2A08D1DAF800200126131DCAF85C
:101C20000030641C15680CE02278A2F130030A2B06
:101C300007D205EB8503012602EB4305641C303D0A
:101C4000F2E722786C2A0DD0682A0BD0702A58D07F
:101C50000BDC252A61D0582A2ED0632A0CD0642AA6
:101C60005FD111E014F8012FECE7732A33D0752A05
:101C700019D0782A55D11FE0DAF80000011DCAF802
:101C8000001001784AE04EE0DAF80020131DCAF88F
:101C900000301668CDE900102B460A22314602A812
:101CA00000F0AEFA3DE0DAF80020131DCAF800306B
:101CB00016682B460A2207E0DAF80020131DCAF83E
:101CC000003016682B461022CDE90010314602A8DC
:101CD00000F0FAFA25E0DAF80000011DCAF8001059
:101CE00007680FB917A7002617F8011BC9B106B17D
:101CF000BDB102A800F052FB05986D1E0028F3DA72
:101D00000FE0DAF800000822011DCAF8001001688F
:101D1000CDE9002813461022D9E7252102A800F0BA
:101D20003DFB641C41E700287FF742AF049820B1D7
:101D3000024607A94846FFF7C7FEDDE9041008443C
:101D4000059035E7284E554C4C290000704701F0AE
:101D50009FBA000030B593B030216846FEF77CFA98
:101D600014210CA8FEF778FA1D480025016841F0FF
:101D700080510160006800F080501190194801689E
:101D800041F4804101600068022400F48040119019
:101D90000120039010200490009406940820CDE9BF
:101DA0000750A820CDE9090404200B906846FFF7EE
:101DB00009F908B172B6FEE70CA90F2081E83100DD
:101DC0004FF4A0500F904FF48050109005210CA8B4
:101DD000FEF7ECFF002801D072B6FEE713B030BD6D
:101DE00040380240007000400248016841F4700130
:101DF0000160704788ED00E00148FFF70ABB000072
:101E0000DC010020F0B50268274B284D284E294FF1
:101E1000294C4FF0804C984209D0604507D0A84229
:101E200005D0B04203D0B84201D0A04204D122F084
:101E3000700E4A6842EA0E0298421BD0604519D0E3
:101E4000A84217D0B04215D0B84213D0A04211D04A
:101E50001A4DA8420ED01A4DA8420BD0194DA842D7
:101E600008D0194DA84205D0184DA84202D0184DEF
:101E7000A84203D122F44075CA682A434D6922F072
:101E800080022A438D68C5620D688562984201D040
:101E9000A04201D109690163016841F004010160B8
:101EA000012141610260F0BD0000014000040040DA
:101EB00000080040000C00400004014000400140C8
:101EC000004401400048014000180040001C004050
:101ED0000020004010B5806B0021C185FFF740FB5A
:101EE00010BD01680C3151E8002F22F4907241E8D6
:101EF0000023002BF5D10168143151E8002F22F0A6
:101F0000010241E80023002BF5D1016B012909D121
:101F100001680C3151E8002F22F0100241E8002343
:101F2000002BF5D1202180F8421000210163704779
:101F300008B590F84210222901D0022008BD82681D
:101F40004FF480539A4201D1016921B1816A9A42CA
:101F50001BD04AB10AE00268816A5268C2F30802E3
:101F60000A80816A891C08E0026972B102685268BD
:101F700002F07F020A70816A491C8162C18D491E8C
:101F80000904090CC18503D01BE002685268F1E71F
:101F90000168CA6822F02002CA600168CA6822F497
:101FA0008072CA6001684A6922F001024A612021F8
:101FB00080F8421000214163026B012A03D0FFF731
:101FC000B7FC002008BD016301680C3151E8002F07
:101FD00022F0100241E80023002BF5D101680A68C5
:101FE000D20602D50A6849680091818DFFF7B7FAD9
:101FF000E7E7000070B5044600680169E26821F473
:102000004051114301612169A068E2690843616997
:10201000114308432168CA6849F20C639A4302439A
:10202000CA6020684169A26921F44071114341618D
:1020300031492068884202D03049884202D1FEF7F7
:102040007FFF01E0FEF76CFFE269002319216425A0
:102050003226B2F5004F626828D0A0FB0101930F31
:102060009200FEF7AFF80146B0FBF5F06FF01802F2
:10207000504301EB800006EB0010B0FBF5F000F0E0
:10208000F002B1FBF5F002EB0012B1FBF5F06FF0DE
:102090001803584301EB800006EB0010B0FBF5F08D
:1020A00000F00F0021681044886070BDA0FB0101A2
:1020B00092185B41FEF786F80146B0FBF5F002018D
:1020C000B1FBF5F06FF01803584301EB800006EB0D
:1020D000C000B0FBF5F000F0F80002EB4002B1FBED
:1020E000F5F0584301EB800006EBC000B0FBF5F0C3
:1020F00000F00700D6E70000001001400014014086
:102100002DE9F843984617460D460446089E24E0FC
:10211000701C22D0FEF77EFDA0EB0800B0421AD85A
:10212000CEB12068C168490717D5802D15D0402D44
:1021300013D00168C94309070FD40168002540681E
:1021400000902046FFF7CDFE0820606484F84050E0
:102150000120BDE8F8830320FBE72068006835EA2A
:10216000000004D00020B842D2D00020F1E70120C6
:10217000F9E700000148FFF7F5B90000D40000209E
:10218000FEE7000010B5134CA8212046FEF764F8C6
:1021900003202061606110A0A06104F1A800E0614B
:1021A0004FF4806020620020A0626062E0620AA1B9
:1021B000216604F5956161661021A1662067E066DD
:1021C00060670849C0F10F028A5C2254401C102845
:1021D000F8D310BD9C1200205465726D696E616C5D
:1021E00000000000143800080269C1688A4203D860
:1021F0008068401A104400E0501A401E70470000EA
:102200002DE9FC5F0E008146DDE90C47C6F10000B8
:1022100098469346824600D40846012503E000BF55
:1022200090FBFBF06D1C5845FADAA84500D94546ED
:1022300024B1002E01DB780700D5641EB80702D553
:10224000B8F1000F0FD0F8070DD164B1A5420AD242
:1022500020214846641E00F0A1F8D9F80C0000289F
:10226000F3DABDE8FC9FD9F80C000028F9DB002E5A
:1022700002DA56462D2102E0780707D52B21484681
:1022800000F08CF8D9F80C000028EADB07F0030016
:1022900002280FD1B8F1000F0CD15CB1A54209D2D0
:1022A00030214846641E00F079F8D9F80C00002867
:1022B000F3DAD6E7CDE9004743465A463146484669
:1022C00000F002F8CDE700002DE9F84F8246DDE985
:1022D0000A4B0126984691460D460846374602E0CD
:1022E000B0FBF9F07F1C4845FAD2B84500D9474603
:1022F0005FEACB7017D1B4B15FEA8B7002D5B8F149
:10230000000F02D0202000900BE03020FBE7504669
:10231000641E009900F042F8DAF80C00002838DB5F
:102320000CB1A742F3D3DAF80C00002831DB00BF70
:10233000B8F1010F02D9A8F1010803E0B5FBF6F0EE
:10234000484502D306FB09F6F2E7DFF84C8000BFF0
:10235000B5FBF6F000FB165518F80010504600F0DB
:102360001DF8DAF80C00002803DBB6FBF9F6002EA6
:10237000EED15FEACB700CD0002C0AD0A74208D275
:1023800020215046641E00F009F8DAF80C000028FD
:10239000F2DABDE8F88F00002538000810B50446D1
:1023A000D4E90130421C934205D323681954A2603A
:1023B000E068401CE060D4E90102824209D1216852
:1023C0002069FFF781FBA168884203D04FF0FF30FE
:1023D000E06010BD0020A06010BD2DE9F047C4688A
:1023E0001746894606464FF000083069A04201D9D9
:1023F000051B02E0B168201A0D1AB0686D1E001BA3
:10240000A84200D80546BD4200D33D4670682A4622
:1024100020444946FDF707FFB0687F1B2C44A844C1
:10242000A944A04200D10024F460002FDDD1404631
:10243000BDE8F0872DE9F04104468846D4E902075B
:10244000C51BE168606816460844B54206D9414696
:10245000FDF7E9FEB819E060BDE8F0812A46414683
:10246000FDF7E1FE761B08EB050132466068FDF7DB
:10247000DAFEE660F0E700000FB4054B10B503A9E3
:10248000044A029800F028F810BC5DF814FB000024
:1024900051280008D00000200907090E002804DB9D
:1024A00000F1E02080F80014704700F00F0000F108
:1024B000E02080F8141D704702E008C8121F08C110
:1024C000002AFAD170477047002001E001C1121FB5
:1024D000002AFBD1704700002DE9FF4F8BB09A46D0
:1024E0000F460446002606E025280BD052460D99DB
:1024F0009047641C761C20780028F5D10FB0304638
:10250000BDE8F08F0025A94601227D4900E0054382
:1025100014F8013F203B02FA03F00842F7D120787B
:102520002E2817D114F8010F45F004052A280ED0E3
:102530006FF02F022078A0F1300109290AD809EBA9
:10254000890102EB410100EB0109641CF2E757F835
:10255000049B641C20786C280DD004DC4C2812D01D
:102560006A2811D104E074280DD07A280CD10AE031
:1025700045F4001507E0617845F48015814202D1E9
:10258000641C05F58015641C207869283ED006DCA3
:102590000028B3D063280BD0642804D136E0732818
:1025A00010D075285CD052460D999047761CA5E056
:1025B00017F8040B8DF8000000208DF80100E846A4
:1025C000012003E057F8048B4FF0FF3069074FF00C
:1025D000000501D40AE06D1C4D450DDA8542FADB99
:1025E00018F805100029F6D106E06D1C8542FCDBC9
:1025F00018F805100029F8D12E4404E018F8010B52
:1026000052460D9990476D1EF8D277E000200A904F
:10261000C5F302504FF00A0B02280CD001CFC117AE
:10262000021E71F100020CDA0023D0EB030063EB11
:1026300001012D2208E0FF1D27F00707F7E802013E
:10264000EEE72A0504D52B228DF82420012203E091
:10265000EA070FD02022F7E70DF12008089218E0D2
:1026600000200A90C5F302504FF00A0B022803D055
:1026700001CF00210022EFE7FF1D27F00707F7E851
:102680000201F7E75A460A9BFDF79CFD303208F835
:10269000012D50EA0102F5D1ADEB080000F1200B4D
:1026A000680701D44FF00109D94502DDA9EB0B0001
:1026B00000E000208146002506E009A85246405D62
:1026C0000D9990476D1C761C08988542F5DB04E057
:1026D000302052460D999047761CB9F10001A9F1BE
:1026E0000109F5DC05E018F8010B52460D999047F9
:1026F000761CBBF10001ABF1010BF4DC641CFAE6C3
:102700000928010010B502220021054800F088FDCB
:10271000002803D0BDE8104000F0AABD10BD0000A5
:102720005528000870B50C21082000F0FFFB104967
:102730008860B0B1002211460E4800F071FD0546D8
:10274000002211460C4800F06BFD044615B12846E6
:1027500000F08EFD002C09D02046BDE8704000F04E
:1027600087BDBDE8704005A0FFF786BE70BD0000C4
:10277000000000209936000839360008717565752B
:102780006520637265617465206661696C65640DBE
:102790000A00000010B501220021054800F040FDAC
:1027A000002803D0BDE8104000F062BD10BD00005D
:1027B0003D37000810B500F099FB0C4C0028606014
:1027C00012D000F0A7FE0AA0FFF756FE0EA0FFF7FA
:1027D00053FE19A1606800F01AFF6068BDE8104060
:1027E00005221A4900F0E8BE10BD000000000020DC
:1027F0000D0A4F53414C2053544D3332463420641C
:10280000656D6F0D0A0000007469636B20736F754E
:102810007263653A206F73616C5F696E6974282911
:10282000202B205379735469636B20636F756E742A
:1028300065720D0A000000006F73616C2075736192
:1028400072742064656D6F0D0A000000C8370008BF
:1028500000F090BE70B500F075FD144D0446287868
:1028600018B9EC6001202C612870E868201AC017A4
:10287000401C0AD000F02EFBD5F80C0000F5FA70D1
:10288000211AC917491CF9D1E8602869201AC01714
:10289000401C0AD000F024FBD5F8100000F57A7037
:1028A000211AC917491CF9D1286170BD0000002008
:1028B000FEF7BEF9FFF74EFAFFF7ACF8FFF78CF81A
:1028C000FFF7E0F800F076F8FFF774FFFFF71AFF64
:1028D000FFF728FFFFF75EFF00F074FC72B6FEE71B
:1028E00000487047F0370008704700000548002195
:1028F000417041608160C160016141618161C0E9F5
:1029000008117047281200207047704710B500204A
:10291000EFF3108472B604490870FFF7E7FF002C4C
:1029200000D162B610BD00002812002009490868D5
:102930004FF6FF021040084A104340F44070086010
:1029400004481430016821F07F4141F0704101607A
:10295000704700000CED00E00000FA0507214FF081
:10296000E020002202618261014A426101617047F8
:102970003F90020000487047007A030A4FF0E020C1
:10298000806970474FF0E020406970474FF0E020C9
:102990000069C0F3004070474FF0E020006900F08C
:1029A0000100704721F000410AB14FF0004211438D
:1029B0000160704710B5FFF797FFFFF7B7FFFFF70C
:1029C000A5FFFFF7CBFFBDE8104000F04DBD10B5EF
:1029D00000F030F80446FFF797FF204610BD10B511
:1029E00000F028F80446FFF78FFF204610BD10B511
:1029F00000F020F80446FFF787FF204610BD10B511
:102A00000446FFF782FF2046BDE8104000F01CB8E6
:102A100010B50446FFF779FF2046BDE8104000F0EE
:102A200013B810B50446FFF770FF2046BDE810400C
:102A300000F00AB8EFF3108072B67047EFF305802C
:102A4000002800D001207047002800D162B67047EE
:102A500011B110F1040F01D900207047C01C20F003
:102A600003000860012070472DE9F84F04002FD0C3
:102A7000FFF7E4FF60BB3548354E4FF0000A844253
:102A80001BD8083469462046FFF7E2FFA8B100983A
:102A9000A04212D3B0F1004F0FD2804600F05AF896
:102AA0003078002815D0FFF792FFB1688146404684
:102AB000884544D80025F4683FE000F04BF83078B2
:102AC00030B1FFF784FF044600F02AF9204639E0D0
:102AD0000020BDE8F88F216821F0004787422AD303
:102AE000391A102912D304EB080700223846FFF7E1
:102AF00059FF606878603DB16F6001224146204611
:102B0000FFF750FF40460AE0F760F6E7606885B1DE
:102B10006860012239462046FFF744FF384600F03E
:102B2000EDF84846C4F804A0FFF769FF04F1080077
:102B3000CFE7F060EDE725466468002CCBD100F0CC
:102B4000EFF84846FFF75BFFC2E70000F7FFFF7FA3
:102B50005000002004480078002803D100210846D6
:102B600000F05AB8704700005000002070B5040013
:102B70004ED0FFF763FF00284AD1FFF7EBFF254D4A
:102B80002878002844D0204600F0D2F800283FD012
:102B90006868083084423BD3083C204600F0C8F8FF
:102BA000002835D0204600F0C3F8002830D0A00718
:102BB0002ED1D5E9010108442168021B21F0004013
:102BC000082825D3904223D820F0030282421FD147
:102BD000C80F1DD0FFF7FBFE0646206820F000411D
:102BE000A868814204D82A69431A934200D3501836
:102BF0002861E8690022401CE8612046FFF7D2FE08
:102C0000204600F043F83046BDE87040FFF7F7BEBD
:102C100070BD0000500000202DE9F0410F4606462F
:102C2000FFF70CFF00281AD1164C0025656216B17B
:102C30000FB1394602E0144E4FF48051F01C20F0E1
:102C40000307B81B814204D9081A20F003010829A0
:102C500007D86560A560E560257025616561BDE800
:102C6000F081C4E9017100223846E760FFF79AFE5F
:102C700001207D602070A0682061C4E90505E56140
:102C80002562ECE7500000202402002070B51A49AC
:102C900004460025C86801E00546406808B1A04226
:102CA000FAD3606035B36C60606880B1216821F050
:102CB00000410A1990420AD10068002220F0004029
:102CC00001442046FFF76EFE606840686060002D9A
:102CD0000FD0286820F000404119A14209D1216895
:102CE000002221F0004101442846FFF75BFE6068A6
:102CF000686070BDCC60D7E75000002007490A69C2
:102D0000824201D3101A00E0002008614A69904213
:102D100000D248618869401C8861704750000020DB
:102D20000248016A491C01627047000050000020FF
:102D300009490A7853424A6813420AD0896841B166
:102D4000031E06D0904204D31144994201D90120B8
:102D500070470020704700005000002070B588B018
:102D60004FF0000614000D4607961CD006A9284611
:102D700000F02CF8B8B128196946401E00F026F87A
:102D800088B1022005900196069800990390081AD0
:102D9000401C049007A901A8FDF78CFD002800D075
:102DA000012008B070BD0420FBE710B5FDF7CEFD93
:102DB000002800D0012010BD10B5100004D01A4624
:102DC000FDF731FA002010BD042010BD21B1A0F1A3
:102DD0000062B2F5801F01D3002070471D4A904267
:102DE00001D2002032E01C4A904201D201202DE0A5
:102DF0001A4A904201D2022028E0194A904201D298
:102E0000032023E0174A904201D204201EE0164A14
:102E1000904201D2052019E0144A904201D20620C6
:102E200014E0134A904201D207200FE0114A904269
:102E300001D208200AE0104A904201D2092005E0A0
:102E40000E4A904201D20A2000E00B2008600120C7
:102E500070470000004000080080000800C0000823
:102E60000000010800000208000004080000060835
:102E70000000080800000A0800000C0800000E0806
:102E800010B5FDF7ABFD002800D0012010BD10B536
:102E900000230120FDF764FD002800D0012010BDB3
:102EA00010B500230220FDF75BFD002800D00120B3
:102EB00010BD10B50320FDF753FD002800D0012000
:102EC00010BD10B500231846FDF74AFD002800D0BC
:102ED000012010BD40210148FDF78EBE00140240C4
:102EE00080210148FDF788BE0014024010B5054C52
:102EF0002068002804D10449044800F021FB206028
:102F000010BD0000C8000020D400002038380008A0
:102F100013B548B14FF47A73012201A9FEF709FDF8
:102F2000002800D001201CBD04201CBD2DE9F0416B
:102F30000C460546FFF782FDE8B90027DDB1D4B1A4
:102F4000A5FB04010022D0F1FF338A4113D3FFF720
:102F50008BFD061E0DD01C20FFF786FD68B1C0E971
:102F60000067C0E902750749C0E904470A68826141
:102F70000860BDE8F0810020FBE73046FFF7F6FD72
:102F8000F9E700007800002010B5044640690B46C0
:102F9000A0B1D4E90001226901FB02011846FDF746
:102FA00042F96068E168401CB0FBF1F201FB1200DD
:102FB00060606069401E6061002010BD032010BD8C
:102FC00010B504464069E268904201D3032010BD69
:102FD000A3682269206803FB0200FDF724F9D4E905
:102FE0000201401CB0FBF1F201FB1200A06060691D
:102FF000401C6061002010BD10B5044600F084F84C
:10300000002805D0FFF7EBFC6469FFF701FD2046BF
:1030100010BD2DE9F04115460E46074600F074F844
:103020004042304202D10420BDE8F081FFF706FDA6
:1030300008B10620F8E73146384600F044F8032886
:10304000F2D1002DF0D000F07DF9044607E03146C2
:10305000384600F038F80028E6D00328E4D100F024
:1030600071F9001BA842F2D30220DDE72DE9F041FF
:1030700015460E46074600F047F84042304202D15E
:103080000420BDE8F081FFF7D9FC08B10620F8E77D
:103090003146384600F027F80328F2D1002DF0D051
:1030A00000F050F9044607E03146384600F01BF8BE
:1030B0000028E6D00328E4D100F044F9001BA84220
:1030C000F2D30220DDE770B50C460646FFF787FC19
:1030D000054621463046FFF757FF04462846FFF7CE
:1030E00097FC204670BD70B50C460646FFF777FC8E
:1030F000054621463046FFF763FF04462846FFF7A2
:1031000087FC204670BD0000002805D005490968ED
:1031100004E0814201D10120704789690029F8D17A
:1031200000207047780000202DE9F041114C07463F
:10313000114D20783946401C2070286800F01EF898
:1031400006463946686800F019F8064396F0010F04
:1031500004D1A068401CA060042805D30020A06012
:103160003946A86800F00AF82078401E2070BDE8B3
:10317000F08100007C000020501200202DE9F04773
:103180000F4C89464FF00008666814E0C568074692
:1031900048450FD0387A68B94FF0010887F80880A1
:1031A0006760D7E900108847387A012801D10020EC
:1031B0003872666028460028E8D14046BDE8F087AE
:1031C0007C00002010B5FFF739FC00280FD1084C17
:1031D000FFF734FC0028FBD100F0D8F8207810B1BC
:1031E00060680028F4D00020FFF79EFFF0E710BDD4
:1031F0007C000020002807D0084B002253F8221042
:1032000004E0814201D101207047C9680029F8D14A
:10321000521C032AF2D300207047000050120020F5
:1032200070B514460E460546FFF708FC10B90DB1FF
:10323000032C01D3002070BD1020FFF715FC0028DF
:10324000F9D0C0E900560221017244720021C16028
:10325000064911EB8402EED0116811B9106070BDFF
:103260001146CA68002AFBD1C86070BD5012002008
:1032700010B50446FFF7E2FB08B1062010BD20465A
:10328000FFF7B8FF10B10020207210BD042010BD60
:1032900010B50F4C607808B900F0E6F86168206A54
:1032A00001446160A36AE16A1B1841F10001A36255
:1032B000E162E168A36808444FF47A71B0FBF1F26F
:1032C0001A44A260B0FBF1F201FB1200E06010BDF5
:1032D0008800002070B5194C607841422069014295
:1032E00001D1002070BDC06880470028FAD0206955
:1032F0008068804705462069006980470646206946
:1033000080688047002146B1D4E90632D31841EBEA
:1033100001021B1A62EB010203E0A069431B61EB8F
:103320000102074D0021A3FB050602FB056203FB1A
:10333000012100236269FCF745FF70BD8800002071
:1033400040420F00AFF3008010B5FFF750FB034978
:103350008C68FFF766FB204610BD00008800002047
:103360002DE9F041FFF743FB06460748856AC76A27
:10337000FFF7B0FF04463046FFF753FB281947F12B
:103380000001BDE8F0810000880000202DE9F04731
:10339000234E0027307800283FD0FFF7E1FFD6E921
:1033A0000C2305460C46801A994136D30026DFF8D7
:1033B0007480B14658F82600E8B10178D9B1D0E957
:1033C0000212691A74EB020115D34178012709B37F
:1033D0000369FBB14FEA090CD0E90221D21841EB95
:1033E0000C01C0E90221AA1A74EB0101F4D241696F
:1033F00009B180698847761C102EDBDB002F0CD0CA
:10340000FFF7F5FA044600F00FF82046BDE8F04754
:10341000FFF707BB80F80090E9E7BDE8F087000000
:10342000880000205C120020F0B500240C4D2046DE
:103430002146224655F8223053B11E7846B124B1B8
:10344000D3E902763F1A8E4102D2D3E90201012468
:10345000521C102AEEDB034A1470C2E90C01F0BDC5
:103460005C120020880000202DE9F047FFF738FAB1
:10347000264C4FF0000A050084F801A0C4F810A003
:10348000C4F814A0C4F818A04FF47A70C4E907A0D7
:103490004FF001091FD0286820B3696811B3A968EB
:1034A00001B3E968F1B12969E1B18047064668686E
:1034B00080478046471CAEB1A7B1154A5FEA5A0162
:1034C0004FEA3600E7FB020132464FF00003FCF7FB
:1034D00079FE68B10DE0A078002801D184F802904F
:1034E000BDE8F087E0780028FAD184F80390F7E788
:1034F0000120C4E9077004F1100181E8600184F83B
:10350000019084F802A084F803A0E9E78800002075
:1035100040420F0010B50446FFF790FA08B10620AC
:1035200010BD204600F038F830B104494868A04288
:1035300000D04C60002010BD042010BDC000002051
:1035400070B50D460446FFF779FA70B96CB1206882
:1035500058B10C20FFF788FA002805D00449C0E9CB
:1035600000450A688260086070BD002070BD0000E0
:10357000C000002070B5044606484FF0FF35406893
:1035800018B1E1B200F032F808B1284670BD20460B
:1035900070BD0000C0000020002805D00549096862
:1035A00004E0814201D10120704789680029F8D1E7
:1035B00000207047C00000202DE9F04116460D465E
:1035C0000746FFF7E9FF4042284202D10420BDE848
:1035D000F081002406E0295D384600F007F8002855
:1035E000F5D1641CB442F6D30020F0E770B50D4667
:1035F0000446FFF7D1FF40B1206830B1026822B124
:1036000029466068BDE870401047042070BD70B561
:103610000C460546FFF7C0FF4042204207D1042078
:1036200070BD2846FFF7E2FF0028F9D1641C21781D
:103630000029F6D1002070BD1FB50B4CA0680028F2
:1036400011D0002201A9FFF7E4FC00280BD1A068EB
:10365000FFF7D2FC00909DF809309DF8082003A0E8
:103660000199FEF709FF1FBD000000207175657507
:103670006520726563763A207365713D256C75200F
:1036800062797465733D25752C257520636F756EA1
:10369000743D256C750D0A003EB51C4DA8680028C8
:1036A00033D0FFF74FFE0446687810B901206C61F3
:1036B00068706869201AC017401C26D0A86900905D
:1036C00000206946009A0B180244401C1A71082811
:1036D000F8D30022A868FFF7C9FC002815D1A86814
:1036E000FFF78AFC03469DF8042009A00099FEF725
:1036F000C3FEA869401CA861D5F8140000F57A70D3
:10370000211AC917491CF9D168613EBD000000208B
:1037100071756575652073656E643A207365713DDA
:10372000256C752066697273743D257520636F750D
:103730006E743D256C750D0A000000007CB5124CBE
:103740000126A07810B9FEF7BCF9A670FFF7FAFDC4
:103750000546E07808B9E561E670E069281AC01707
:10376000401C10D009A0CDE900500AA30AA20CA168
:103770000020FEF7F3F9E06900F5FA70291AC9177D
:10378000491CF9D1E0617CBD000000201B5B306D5D
:1037900000000000573A20001B5B313B33336D00C3
:1037A000202025732573727474207461736B2072EA
:1037B000756E6E696E673A20256C75206D730D0A03
:1037C0000D0A2573000000006162630D0A000610F7
:1037D00016000610160000000000000000010203A1
:1037E00004060708090000000001020304000000AD
:1037F00075290008852900087D29000899290008F5
:103800008D2900083031323334353637383941426A
:1038100043444546000000000000545452205245E5
:103820004747455300303132333435363738394124
:103830004243444546000000112F0008812E000835
:10384000AB2D00085D2D0008B92D0008C32E00081F
:103850008F2E0008A12E0008B32E00087C38000827
:1038600000000020D4000000B824000850390008EF
:10387000D4000020841A0000C824000800000000C2
:103880000000000000000000000000000000000038
:103890000000000000000000000000000000000028
:1038A0000000000000000000000000000100000017
:1038B0000000000000000000000000000100000007
:1038C00010000000000000000024F40000000000D0
:1038D00000000000000000000000000000000000E8
:1038E00000000000000000000000000000000000D8
:1038F00000000000000000000000000000000000C8
:1039000000000000000000000000000000000000B7
:1039100000000000000000000000000000000000A7
:1039200000000000E80300000000000000000000AC
:103930000000000000000000000000000000000087
:103940000000000000000000000000000000000077
:040000050800018965
:00000001FF
