:020000040800F2
:10000000301B0020A1010008DB1A0008F1190008CC
:10001000D91A0008ED0200081122000800000000B3
:10002000000000000000000000000000DD1D0008CE
:100030008503000800000000DD1A0008DF1D00082D
:10004000BB010008BB010008BB010008BB010008A0
:10005000BB010008BB010008BB010008BB01000890
:10006000BB010008BB010008BB010008BB01000880
:10007000BB010008BB010008BB010008BB01000870
:10008000BB010008BB010008BB010008BB01000860
:10009000BB010008BB010008BB010008BB01000850
:1000A000BB010008BB010008BB010008BB01000840
:1000B000BB010008BB010008BB010008BB01000830
:1000C000BB010008BB010008BB010008BB01000820
:1000D000BB01000805220008BB010008BB010008A5
:1000E000BB010008BB010008BB010008891E000815
:1000F000BB010008BB010008BB010008BB010008F0
:10010000BB010008BB010008BB010008BB010008DF
:10011000BB010008BB010008BB010008BB010008CF
:10012000BB010008BB010008F1020008BB01000888
:10013000BB010008BB010008BB010008BB010008AF
:10014000BB010008BB010008BB010008BB0100089F
:10015000BB010008BB010008FD020008BB0100084C
:10016000BB010008BB010008BB010008BB0100087F
:10017000BB010008BB010008BB0100080000000033
:10018000BB010008BB010008DFF810D000F09CF8AC
:1001900000480047952C0008AFF30080301B00207A
:1001A0000648804706480047FEE7FEE7FEE7FEE711
:1001B000FEE7FEE7FEE7FEE7FEE7FEE7791E000842
:1001C000890100082DE9F05F0546002092469B4614
:1001D00088460646814640241BE02846414647465D
:1001E000224600F060F853465A46C01A914110D397
:1001F00011461846224600F047F82D1A67EB010811
:100200004F4622460120002100F03EF817EB00097E
:100210004E41201EA4F10104DFDC484631462A4647
:100220004346BDE8F09F40EA01039B0703D009E085
:1002300008C9121F08C0042AFAD203E011F8013BD2
:1002400000F8013B521EF9D27047D2B201E000F82B
:10025000012B491EFBD270470022F6E710B513466A
:100260000A4604461946FFF7F0FF204610BD30B598
:1002700004460020034600E05B1C934203D2E05C8E
:10028000CD5C401BF8D030BD202A04DB203A00FAB8
:1002900002F1002070479140C2F1200320FA03F3DD
:1002A000194390407047202A04DB203A21FA02F0DB
:1002B0000021704721FA02F3D040C2F120029140A0
:1002C0000843194670470000064C074D06E0E068F9
:1002D00040F0010394E8070098471034AC42F6D38D
:1002E000FFF756FF1044000830440008FEE7000006
:1002F000014800F0B3B9000020010020014800F0DF
:10030000ADB900008001002001681823CAB2103A7C
:10031000B2FBF3F2054B6FF30901032A9B5CC36543
:1003200000D9091D81650846704700008143000817
:1003300010B5014600208B698A6A4FF0C07453B132
:10034000B3F5005F15D072B1012A0CD0022A0AD091
:10035000032A09D104E01AB1012A06D0022A03D1E6
:10036000C96AC90100D5012010BDC96AA142FAD0ED
:1003700010BD002AF7D0012AF2D0022AF3D0032AB6
:10038000F3D010BD704772B6FEE70000002229B11D
:1003900001291AD002291BD04FF440720E490B6874
:1003A00023F440730B600B6813430B600A6822F060
:1003B00078020A600A68022303EBC00002430A6065
:1003C000086840F48030086070474FF48072E5E7B9
:1003D0004FF40072E2E70000103C0240134801684D
:1003E00089050FD5016821F400710160016841F4AD
:1003F00000610160016821F400610160016841F45D
:1004000000710160016849050FD5016821F4806120
:100410000160016841F480510160016821F480515C
:100420000160016841F4806101607047003C024056
:1004300008490A6822F440720A600A6842F004021D
:100440000A600A684FF4803343EA002002430A60DE
:1004500070470000103C0240064A136823F44073C2
:10046000136013681360136843F001031360017095
:1004700070470000103C0240094910B50C6824F494
:1004800040740C600C6844F440740C600C6844F0D8
:1004900001040C600260BFF36F8F436010BD000069
:1004A000103C0240074A136823F44073136013683A
:1004B00043F480731360136843F0010313600180F9
:1004C00070470000103C0240074A136823F4407351
:1004D0001360136843F400731360136843F001035F
:1004E0001360016070470000103C02401749086823
:1004F000C206174805D5C26942F01002C261102237
:100500000A600A68920605D5C26942F00802C26113
:1005100020220A600A68520605D5C26942F0040228
:10052000C26140220A600A68120605D5C26942F01B
:100530000202C26180220A600A68920705D5C26978
:1005400042F02002C2610220086070470C3C024069
:100550003000002070B5114904460020C86100F049
:1005600067FB06460E4D09E0601C07D024B100F081
:100570005FFB801BA04201D9032070BD2868C00327
:10058000F2D42868C00701D001202860286810F044
:10059000F200F2D0FFF7AAFF012070BD300000206A
:1005A0000C3C02402DE9F0410446876D00F040FB11
:1005B000064694F835000025022806D080206065A4
:1005C00084F834500120BDE8F0812068016821F0F2
:1005D000160101602068416921F080014161206CB1
:1005E00008B9A06C20B12068016821F00801016001
:1005F0002068016821F0010101600CE000F018FBA7
:10060000801B052807D920206065032084F8350069
:1006100084F83450D7E720680068C007EED194F81A
:100620005C103F208840B860012084F8350084F8D1
:1006300034500020C7E790F83510022903D08021FC
:10064000416501207047052180F835100068016878
:1006500021F0010101600020704700002DE9F843FE
:1006600004464FF00009CDF8009063484FF416514E
:10067000A56D0068B0FBF1F72E6894F85C100820B7
:1006800000FA01F131420FD021680A6852070BD5F8
:100690000A6822F004020A6094F85C108840A8609E
:1006A000606D40F00100606594F85C104FF0010847
:1006B00008FA01F0304208D021684969090604D5DA
:1006C000A860606D40F00200606594F85C10042042
:1006D0008840304208D021680968890704D5A8609D
:1006E000606D40F00400606594F85C101020884054
:1006F000304218D021680968090714D5A86020681D
:100700000168490304D50068000308D5A16C07E01F
:100710000168C90503D4016821F008010160216C5A
:1007200009B12046884794F85C1020208840304268
:1007300031D021680968C9062DD5A86094F8350024
:1007400005282068016806D0490347D500680003E2
:100750001DD4616C1CE021F0160101602068416924
:1007600021F080014161206C08B9A06C20B12068A3
:10077000016821F00801016094F85C103F20884076
:10078000A86084F8358084F83490216D1FE0E16B17
:1007900009B120468847606D00282BD0606DC007E6
:1007A00014D0052084F835002068016821F001018B
:1007B00001600098401C0090B84203D8206800688F
:1007C000C007F6D184F8358084F83490E16C0029B4
:1007D00010D001B02046BDE8F04308470168C905C4
:1007E000D5D4016821F01001016084F8358084F8C7
:1007F0003490CCE7BDE8F8835C0000202DE9F0419F
:10080000044600F015FA06465CB1022084F8350073
:10081000002584F834502068016821F0010101604E
:100820000DE00120BDE8F08100F002FA801B0528F0
:1008300005D920206065032084F83500F2E72068A0
:100840000068C007F0D12268116820480140D4E94F
:1008500001031843D4E9033633431843636918434B
:10086000A3691843E3691843236A18430843616A7C
:10087000042903D1D4E90B131943084310602068FD
:100880004069666A20F0070130460E4301270428BC
:100890000CD1A06A0643E06A40B12046FFF748FD4C
:1008A00020B14020606584F83570BAE72068466161
:1008B0002046FFF729FD94F85C203F21914081609C
:1008C000656584F835700020ACE700003F8010F0CB
:1008D0002DE9F047044622480F46017E01290AD03F
:1008E0000121804601764CF250394846FFF732FE2E
:1008F000020003D02FE00220BDE8F0874FF0FF3068
:1009000038602068174D012801D0A6681CE0207CC3
:100910006168FFF78DFD4846FFF71CFE0246286818
:1009200020F00400286014E0217C3046FFF72EFD03
:100930004846FFF70FFE0200286820F07A00286082
:1009400001D03E6005E0761CD4E902100844B042B4
:10095000EAD8FFF743FD002188F818101046CBE7CE
:1009600030000020103C02400348016841F0004183
:100970000160002070470000103C02402DE9F04764
:100980001B4E05461446307E1F468946012808D076
:10099000012030764CF250384046FFF7DBFD18B1AD
:1009A00014E00220BDE8F0879DB1012D16D0022D84
:1009B00019D022463B464846FFF75EFD4046FFF70A
:1009C000C9FD0C490A6822F001020A600021317653
:1009D000E8E7E1B24846FFF73FFDEFE7A1B248463E
:1009E000FFF760FDEAE721464846FFF76DFDE5E7C2
:1009F00030000020103C0240074900200A68002A0D
:100A000009DA054A054B0C3A1360054B1360096877
:100A1000002900DA01207047103C0240230167459D
:100A2000AB89EFCD2DE9F84FDFF8BCA100220125FD
:100A300003264FF00F090AF1040BAAF1040E00BFC0
:100A40000B6805FA02F42340A34270D10F7907F036
:100A50000307012F01D0022F16D187684FEA420801
:100A600006FA08FC27EA0C07D1F80CC00CFA08FCBF
:100A70004CEA070CC0F808C04768A7430C79C4F3D8
:100A8000001494403C4344600C79E443A4070AD02A
:100A9000C4684FEA420C06FA0CF7BC438F6807FAA9
:100AA0000CF72743C7600C7904F00304022C12D121
:100AB000D40800EB840CDCF820405707FF0E09FA3D
:100AC00007F824EA0804D1F8108008FA07F848EA81
:100AD0000408CCF8208004684FEA420C06FA0CF7B0
:100AE000BC430F7907F0030707FA0CF727430760A9
:100AF0004C6814F4403F70D03C4C276847F4804762
:100B00002760246822F0030704F480440094384CE2
:100B100007EB040CDCF8084897074FEA177809FA46
:100B200008F7BC43334FB84202D1002724E054E019
:100B3000314FB84201D101271EE0304FB84201D1F8
:100B4000022719E02E4FB84201D1032714E02D4FA0
:100B5000B84201D104270FE02B4FB84201D105273D
:100B60000AE02A4FB84201D1062705E0284FB842D3
:100B700001D1072700E0082707FA08F72743CCF838
:100B80000878DAF800405746D1F804C09C435FEA81
:100B9000CC2C00D51C433C60DBF800405F46D1F80C
:100BA00004C09C435FEA8C2C00D51C433C60DEF8FB
:100BB00000407746D1F804C09C435FEA8C3C00D5E6
:100BC0001C433C60084F083F3C68D1F804C09C437C
:100BD0005FEACC3C00D51C433C60521C102AFFF459
:100BE0002FAFBDE8F88F0000083C014044380240B8
:100BF00000300140000002400004024000080240B2
:100C0000000C024000100240001402400018024094
:100C1000001C0240426921EA02030A4043EA024101
:100C2000816170470AB1816170470904FBE70000E8
:100C30000148806870470000500000200248816829
:100C40000278114481607047500000200B4810B5B5
:100C5000016841F400710160016841F48061016044
:100C6000016841F480710160032000F09BF80F20BF
:100C700000F006F800F050F8002010BD003C0240E3
:100C800030B505461F4887B00024016841F0400197
:100C90000160006806A900F04000009001A800F083
:100CA0002DF90498A8B100F049F940001649174AF7
:100CB000B0FBF1F11648491E026040F2E732C0E98C
:100CC0000324C0E90114846100F042FB040003D056
:100CD00015E000F033F9E9E70D4800F067FB040088
:100CE0000DD12B2000F030F8102D07D2002229461C
:100CF0002B2000F037F80748056000E0012407B01A
:100D0000204630BD4038024040420F0000180040ED
:100D1000E0010020540000200A4808B5016841F4B1
:100D200080410160006800F4804000900548001F89
:100D3000016841F080510160006800F0805000902F
:100D400008BD000044380240002809DB00F01F0203
:100D5000012191404009800000F1E020C0F800111D
:100D600070470000F0B40E4B1B680C46C3F302231F
:100D7000C3F10705042D00D90425191D072901D247
:100D8000002300E0DB1E012606FA05F1491E214082
:100D900099409E40761E16403143F0BC01F0C4BB22
:100DA0000CED00E0064900F0070208684FF6FF036B
:100DB000184040EA0220034A1043086070470000D0
:100DC0000CED00E00000FA052DE9F0470E460500A5
:100DD00065D0DFF81481D8F80000F7B200F0070002
:100DE000B04207D288F80070D8F8000000F0070081
:100DF000B04254D128683D4C810712D5400703D535
:100E0000206840F4E05020602878000703D520686F
:100E100040F4604020602068A96820F0F00008439A
:100E200020602878C0072DD030496868083901282B
:100E300012D0022813D0032811D00968890700298D
:100E40002DDA216821F0030101432160FFF7F0FE54
:100E5000814641F2883A0EE009688903EFE70968A4
:100E60008901ECE7FFF7E4FEA0EB0901514502D947
:100E70000320BDE8F0872068696800F00C00B0EB43
:100E8000810FEFD1D8F80010404601F00701B142C0
:100E900007D90770006800F00700B04201D00120B8
:100EA000E7E72878400705D52068E96820F4E05096
:100EB000084320602878000706D52068296920F4B7
:100EC000604040EAC100206000F058F82168084AFC
:100ED000C1F30311515CC840064908600648006828
:100EE000FFF7CEFE0020C4E7003C02400838024075
:100EF000894300085C000020540000200F2202609B
:100F00000C4A136803F003034360136803F0F00313
:100F10008360136803F4E053C36012684FF4E05336
:100F200003EAD20202610448006800F0070008608A
:100F30007047000008380240003C02400448054960
:100F400000680968044AC1F38221515CC8407047B7
:100F50005C00002008380240994300080448054915
:100F600000680968044AC1F34231515CC8407047C7
:100F70005C0000200838024099430008154810B56D
:100F8000006810F00C02144813D01449042A0FD042
:100F9000082A0ED10F4C241F2268236802F03F025A
:100FA0005B0207D52068C0F38810A0FB010106E0B2
:100FB000084610BD2168C1F38811A1FB0001002380
:100FC000FFF700F92168C1F30141491C4900B0FB5A
:100FD000F1F010BD083802400024F40040787D0193
:100FE0002DE9F84F04006ED02078DFF84C93C0074D
:100FF000A9F104054AD009F104000168C1F3810197
:10100000012908D00068C0F3810002280AD1D9F86C
:101010000000400206D52868800337D560680028A4
:10102000E1D033E06068B0F5803F10D0B0F5A02F7C
:10103000286810D020F480302860286820F48020B0
:1010400028606068A8B1FFF7F3FD06460DE0286848
:1010500040F48030F4E740F480202860F7E700BFD8
:10106000FFF7E6FD801B642873D828688003F7D556
:101070000CE0FFF7DDFD064605E000BFFFF7D8FDF9
:10108000801B6428F0D828688003F7D42078DFF824
:10109000AC8280074FF0000A3ED5A748001D0168CA
:1010A00011F00C0F08D00068C0F3810002280BD1AA
:1010B000D9F80000400207D42868800716D5E068F8
:1010C000012800D112E033E1E068B8B10120C8F88E
:1010D0000000FFF7ADFD064605E000BFFFF7A8FDE5
:1010E000801B0228C0D828688007F7D528682169A6
:1010F00020F0F80040EAC10028600DE0C8F800A028
:10110000FFF796FD064604E0FFF792FD801B0228DC
:101110001FD828688007F7D42078000722D5864F8B
:1011200087486169703771B101210160FFF780FD67
:10113000064604E0FFF77CFD801B022809D83868CA
:101140008007F7D50EE0C0F800A0FFF771FD064656
:1011500005E082E0FFF76CFD801B02287DD838682F
:101160008007F7D42078400768D5DFF8CCB1002796
:101170000BF13C0BDBF80000C0000BD4DBF80010D7
:1011800041F08051CBF80010DBF80000012700F09F
:10119000805000906B4E3068C00510D4306840F429
:1011A00080703060FFF744FD009005E0FFF740FDE0
:1011B0000099401A022850D83068C005F6D55E4E16
:1011C000A0686C3601280FD00528306810D020F0B8
:1011D00001003060306820F004003060A068B8B1D1
:1011E000FFF726FD00900FE0306840F00100F4E7C3
:1011F00040F004003060F7E7FFF71AFD0099411A4C
:1012000041F28830814266D830688007F4D50EE01C
:10121000FFF70EFD009007E0FFF70AFD0099411A65
:1012200041F28830814256D830688007F4D42FB11B
:10123000DBF8001021F08051CBF80010A069C8B392
:101240003D49091D0968C1F3810102294AD00228DC
:10125000504607D0C8F8600000E03CE0FFF7E8FC2B
:1012600004463BE04746C8F86000FFF7E1FC06464D
:1012700005E000BFFFF7DCFC801B02282BD82868A4
:101280008001F7D4D4E907010843A16A2E4A49082E
:1012900002EB0141626A41EA8211084394F82C1082
:1012A00040EA0161C9F8001001203866FFF7C0FC70
:1012B000044606E03EE000BFFFF7BAFC001B022830
:1012C00009D828688001F7D534E000BFFFF7B0FCEB
:1012D000001B022802D90320BDE8F88F286880018E
:1012E000F4D427E00128F7D0D9F80000E26900F42F
:1012F000800191421CD1226A00F03F01914217D136
:1013000047F6C071626A0140B1EB821F10D1A26A38
:101310004FF0FF3300F4403103EB5202B1EB024FC8
:1013200006D194F82C1000F07060B0EB016F01D082
:101330000120D1E70020CFE70438024000004742F7
:10134000800E4742007000400000FFFF704770476A
:1013500010B5040003D094F83D0010B107E001205F
:1013600010BD002084F83C00204600F01EF802204A
:1013700084F83D00211D206800F08CFD012084F8D8
:10138000460084F83E0084F83F0084F8400084F86A
:10139000410084F8420084F8430084F8440084F853
:1013A000450084F83D00002010BD704790F83D10C6
:1013B000012901D001207047022180F83D10016809
:1013C000CA6842F00102CA6000681149884214D01C
:1013D000B0F1804F11D00F4988420ED00E4988429B
:1013E0000BD00E49884208D00D49884205D00D49DE
:1013F000884202D00C49884204D1816801F007017B
:10140000062903D0016841F0010101600020704706
:10141000000001400004004000080040000C0040B3
:1014200000040140004001400018004070472DE9D1
:10143000F04104460068C66805694FF00007A90737
:1014400013D5B10711D5F91E01610120207720685D
:1014500080698007204602D0FFF7E8FF04E000F033
:101460007EF8204600F07CF82777680716D57007CD
:1014700014D521686FF004000861022020772068ED
:10148000806910F4407F204602D0FFF7CFFF04E0D0
:1014900000F065F8204600F063F82777280715D597
:1014A000300713D521686FF0080008610420207709
:1014B0002068C0698007204602D0FFF7B7FF04E02C
:1014C00000F04DF8204600F04BF82777E80616D5D7
:1014D000F00614D521686FF010000861082020770D
:1014E0002068C06910F4407F204602D0FFF79EFFBD
:1014F00004E000F034F8204600F032F82777E807DF
:1015000008D0F00706D021686FF00100086120467E
:1015100000F028F8280608D5300606D521686FF0B7
:10152000800008612046FFF711FF680608D57006A5
:1015300006D521686FF040000861204600F01CF8D5
:10154000A8060AD5B00608D521686FF0200008610A
:101550002046BDE8F041FFF7FABEBDE8F0817047D4
:101560007047000000680349884201D1FFF766BB5D
:101570007047000000180040704770477047000037
:10158000F8B5016804460868CA684B6910F00F0F87
:101590004FF0000559D003F0010602F4907737436D
:1015A00065D0C10705D0D10503D5616C41F00101BB
:1015B0006164410705D5D90703D0616C41F0020190
:1015C0006164810705D5D90703D0616C41F004013E
:1015D0006164010707D502F02001314303D0616C3B
:1015E00041F008016164616C00293AD0800604D59D
:1015F000900602D5204600F0E3FC20684069616C4B
:10160000C0F38010090700D460B3204600F0B1FC9D
:1016100020684069400621D52068143050E8001F3A
:1016200021F0400140E80012002AF5D1E06BA8B19A
:1016300072490165E06BFEF7FEFF002811D0E06BF8
:10164000016D01B0BDE8F040084783060FD5930651
:101650000DD52046BDE8F84000F0B2BC2046FFF7AB
:101660008DFFF8BD2046FFF789FF6564F8BD266B46
:101670002023012E7ED1C6067CD5D6067AD50868F1
:101680004868009048694FF0020640064DD5E26B6D
:10169000106840684FF480770004000C3AD0A18DA8
:1016A000814237D9E085D069B8422DD020680C300E
:1016B00050E8001F21F4807140E80012002AF5D1A3
:1016C0002068143050E8001F21F0010140E80012AA
:1016D000002AF5D12068143050E8001F21F04001A5
:1016E00040E80012002AF5D184F8423025632068D2
:1016F0000C3050E8001F21F0100140E80012002AD1
:10170000F5D1E06BFEF74EFF6663A08DE18D401AC8
:1017100081B206E0A18D8142A8D1D069B842A5D19D
:1017200066632046FFF729FFF8BDA08DE18D401AC2
:1017300081B2E08D0028F7D00029F5D020680C3068
:1017400050E8002F22F4907240E80027002FF5D1D6
:101750002068143050E8002F22F0010240E80027F2
:10176000002FF5D184F84230256320680C3050E812
:10177000002F00E006E022F0100240E80023002BDA
:10178000F3D1CDE705062BD5150629D594F84100F0
:101790002128C9D1A068B0F5805F01D12069B0B11E
:1017A000206A411C2162216800784860E08C401E5C
:1017B0000004000CE084B7D12068C16821F08001EA
:1017C000C1602068C16841F04001C160F8BD206A75
:1017D0000088C0F308004860206A801C2062E5E7AA
:1017E0004006F3D55006F1D5CA68204622F04002E3
:1017F000CA6084F8413000F0FAF8F8BD651F0008AF
:1018000070B5040004D094F84100002510B106E042
:10181000012070BD84F84050204600F023F82420B9
:1018200084F841002068C16821F40051C16020465D
:1018300000F028FC2068016921F4904101612068D2
:10184000416921F02A0141612068C16841F40051D9
:10185000C1606564202084F8410084F8420065631B
:10186000002070BD2DE9F04186B00646142168467F
:10187000FEF7F2FC30493068884259D12F480024E5
:10188000016841F010010160006800F0100005904F
:101890002A481438016841F0010101600068694676
:1018A00000F0010005904FF4C06000900220CDE9E7
:1018B000010403200390072004902148FFF7B2F8A9
:1018C000214D20484FF000672860C5E901744FF4AE
:1018D0008068C5E903486C61AC61EC612C62284604
:1018E0006C62FEF78BFF08B1FEF74DFDF563AE634A
:1018F000154D144860357830E5E802074020A5E82A
:101900001101114845F814496030AC61EC612C625A
:101910006C62FEF773FF08B1FEF735FDB563002278
:1019200011462520AE63FFF71DFA2520FFF70CFABC
:1019300006B0BDE8F08100000010014044380240CC
:1019400000000240406402402001002070472DE961
:10195000F843044690F84100984616460D46202864
:1019600002D00220BDE8F88385B17EB1002060641A
:10197000212084F84100FFF75BF9A6848146E684C4
:10198000A0682027B0F5805F02D003E00120E9E7DE
:10199000206910B12E4600250EE000260CE08021C3
:1019A000204600F0F5FBA8B9C6B116F8010B216876
:1019B0004860E08C401EE084E08C4B464FF0000213
:1019C000CDF800800028EAD14FF04001204600F019
:1019D000DFFB40B184F841700320C3E735F8020B08
:1019E000C0F30800E3E784F841700020BAE77047CD
:1019F000FEE700000D4808B5016841F48001016070
:101A00000068002200F48000009011463A20FFF7A1
:101A1000A9F93A20FFF798F9002211464620FFF76E
:101A2000A1F9BDE808404620FFF78EB930380240E2
:101A300070B586B014216846FEF70EFC16480024E7
:101A4000016841F020010160016801F02001059169
:101A5000016841F080010160016801F08001059199
:101A6000016841F00101016000680C4E00F00100C6
:101A70004FF4E0750590012229463046FFF7D2F871
:101A800001200095CDE90104694630460394FEF734
:101A9000C9FF06B070BD000030380240001402409B
:101AA0000C4810B50A4901604FF4E1314160002152
:101AB00081600C22C160C0E904128161C161FFF73D
:101AC0009FFE002803D0BDE81040FEF75CBC10BDAF
:101AD00000100140D8000020FEE7FEE7704700F04C
:101AE00099BB00001CB50C4C207818B9FFF7F7FF24
:101AF0000120207002F084F908A1CDE9000109A3BA
:101B000009A20BA1002000F071F8BDE81C404FF4C1
:101B1000FA71002002F046B8000000201B5B306D17
:101B200000000000573A20001B5B313B33336D004F
:101B3000202025732573727474207461736B207276
:101B4000756E6E696E673A20256C75206D730D0A8F
:101B50000D0A2573000000002DE9F04107460B48EF
:101B600015460E460078532801D000F053FBEFF3E2
:101B70001184202080F311882A463146384600F02F
:101B800007F8E1B281F31188BDE8F08174120020FA
:101B900070B50E46144900EB400001EBC005144639
:101BA000E86A183520B101280FD0022805D113E0CA
:101BB000284600F061FBA04201D2002411E0224639
:101BC0003146284600F07EFC0BE0284600F054FB2E
:101BD000A042F4D20446F2E73146284600F045FC24
:101BE0000446204670BD0000741200200FB408B5F2
:101BF00004A900916A46039900F004F801B05DF869
:101C000014FB00002DE9F04798B0814607A8029028
:101C100040204FF000080390CDF8108092460C460B
:101C20004046CDE9058900BF14F8011B002972D098
:101C3000252908D002A800F0F9FB05980028F3DA5E
:101C400018B0BDE8F087002001212278232A1ED099
:101C50002B2A19D02D2A02D0302A08D102E040F0D8
:101C6000010001E040F00200641C0029EDD10021D8
:101C70002278A2F130030A2B0CD201EB810102EB96
:101C800041013039641CF3E740F00400ECE740F018
:101C90000800E9E70026D2B235462E2A19D114F8F9
:101CA000012F2A2A08D1DAF800200126131DCAF8CC
:101CB0000030641C15680CE02278A2F130030A2B76
:101CC00007D205EB8503012602EB4305641C303D7A
:101CD000F2E722786C2A0DD0682A0BD0702A58D0EF
:101CE0000BDC252A61D0582A2ED0632A0CD0642A16
:101CF0005FD111E014F8012FECE7732A33D0752A75
:101D000019D0782A55D11FE0DAF80000011DCAF871
:101D1000001001784AE04EE0DAF80020131DCAF8FE
:101D200000301668CDE900102B460A22314602A881
:101D300000F0AEFA3DE0DAF80020131DCAF80030DA
:101D400016682B460A2207E0DAF80020131DCAF8AD
:101D5000003016682B461022CDE90010314602A84B
:101D600000F0FAFA25E0DAF80000011DCAF80010C8
:101D700007680FB917A7002617F8011BC9B106B1EC
:101D8000BDB102A800F052FB05986D1E0028F3DAE1
:101D90000FE0DAF800000822011DCAF800100168FF
:101DA000CDE9002813461022D9E7252102A800F02A
:101DB0003DFB641C41E700287FF742AF049820B147
:101DC000024607A94846FFF7C7FEDDE904100844AC
:101DD000059035E7284E554C4C290000704701F01E
:101DE0007FBF000030B593B030216846FEF734FA6B
:101DF00014210CA8FEF730FA1D480025016841F0B7
:101E000080510160006800F080501190194801680D
:101E100041F4804101600068022400F48040119088
:101E20000120039010200490009406940820CDE92E
:101E30000750A820CDE9090404200B906846FFF75D
:101E4000CFF808B172B6FEE70CA90F2081E8310087
:101E50004FF4A0500F904FF48050109005210CA823
:101E6000FEF7B2FF002801D072B6FEE713B030BD16
:101E700040380240007000400248016841F470019F
:101E80000160704788ED00E00148FFF7D0BA00001C
:101E9000E0010020F0B50268274B284D284E294F5D
:101EA000294C4FF0804C984209D0604507D0A84299
:101EB00005D0B04203D0B84201D0A04204D122F0F4
:101EC000700E4A6842EA0E0298421BD0604519D053
:101ED000A84217D0B04215D0B84213D0A04211D0BA
:101EE0001A4DA8420ED01A4DA8420BD0194DA84247
:101EF00008D0194DA84205D0184DA84202D0184D5F
:101F0000A84203D122F44075CA682A434D6922F0E1
:101F100080022A438D68C5620D688562984201D0AF
:101F2000A04201D109690163016841F00401016027
:101F3000012141610260F0BD000001400004004049
:101F400000080040000C0040000401400040014037
:101F5000004401400048014000180040001C0040BF
:101F60000020004010B5806B0021C185FFF706FB03
:101F700010BD01680C3151E8002F22F4907241E845
:101F80000023002BF5D10168143151E8002F22F015
:101F9000010241E80023002BF5D1016B012909D191
:101FA00001680C3151E8002F22F0100241E80023B3
:101FB000002BF5D1202180F84210002101637047E9
:101FC00008B590F84210222901D0022008BD82688D
:101FD0004FF480539A4201D1016921B1816A9A423A
:101FE0001BD04AB10AE00268816A5268C2F3080253
:101FF0000A80816A891C08E0026972B1026852682D
:1020000002F07F020A70816A491C8162C18D491EFB
:102010000904090CC18503D01BE002685268F1E78E
:102020000168CA6822F02002CA600168CA6822F406
:102030008072CA6001684A6922F001024A61202167
:1020400080F8421000214163026B012A03D0FFF7A0
:102050007DFC002008BD016301680C3151E8002FB0
:1020600022F0100241E80023002BF5D101680A6834
:10207000D20602D50A6849680091818DFFF77DFA82
:10208000E7E7000070B5044600680169E26821F4E2
:102090004051114301612169A068E2690843616907
:1020A000114308432168CA6849F20C639A4302430A
:1020B000CA6020684169A26921F4407111434161FD
:1020C00031492068884202D03049884202D1FEF767
:1020D00045FF01E0FEF732FFE26900231921642584
:1020E0003226B2F5004F626828D0A0FB0101930FA1
:1020F0009200FEF767F80146B0FBF5F06FF01802AA
:10210000504301EB800006EB0010B0FBF5F000F04F
:10211000F002B1FBF5F002EB0012B1FBF5F06FF04D
:102120001803584301EB800006EB0010B0FBF5F0FC
:1021300000F00F0021681044886070BDA0FB010111
:1021400092185B41FEF73EF80146B0FBF5F0020144
:10215000B1FBF5F06FF01803584301EB800006EB7C
:10216000C000B0FBF5F000F0F80002EB4002B1FB5C
:10217000F5F0584301EB800006EBC000B0FBF5F032
:1021800000F00700D6E700000010014000140140F5
:102190002DE9F843984617460D460446089E24E06C
:1021A000701C22D0FEF744FDA0EB0800B0421AD804
:1021B000CEB12068C168490717D5802D15D0402DB4
:1021C00013D00168C94309070FD40168002540688E
:1021D00000902046FFF7CDFE0820606484F8405050
:1021E0000120BDE8F8830320FBE72068006835EA9A
:1021F000000004D00020B842D2D00020F1E7012036
:10220000F9E700000148FFF7BBB90000D800002043
:10221000FEE7000010B5134CA8212046FEF71CF87D
:1022200003202061606110A0A06104F1A800E061BA
:102230004FF4806020620020A0626062E0620AA128
:10224000216604F5956161661021A1662067E0664C
:1022500060670849C0F10F028A5C2254401C1028B4
:10226000F8D310BD741200205465726D696E616CF4
:1022700000000000C84300080269C1688A4203D810
:102280008068401A104400E0501A401E7047000059
:102290002DE9FC5F0E008146DDE90C47C6F1000028
:1022A00098469346824600D40846012503E000BFC5
:1022B00090FBFBF06D1C5845FADAA84500D945465D
:1022C00024B1002E01DB780700D5641EB80702D5C3
:1022D000B8F1000F0FD0F8070DD164B1A5420AD2B2
:1022E00020214846641E00F0A1F8D9F80C0000280F
:1022F000F3DABDE8FC9FD9F80C000028F9DB002ECA
:1023000002DA56462D2102E0780707D52B214846F0
:1023100000F08CF8D9F80C000028EADB07F0030085
:1023200002280FD1B8F1000F0CD15CB1A54209D23F
:1023300030214846641E00F079F8D9F80C000028D6
:10234000F3DAD6E7CDE9004743465A4631464846D8
:1023500000F002F8CDE700002DE9F84F8246DDE9F4
:102360000A4B0126984691460D460846374602E03C
:10237000B0FBF9F07F1C4845FAD2B84500D9474672
:102380005FEACB7017D1B4B15FEA8B7002D5B8F1B8
:10239000000F02D0202000900BE03020FBE75046D9
:1023A000641E009900F042F8DAF80C00002838DBCF
:1023B0000CB1A742F3D3DAF80C00002831DB00BFE0
:1023C000B8F1010F02D9A8F1010803E0B5FBF6F05E
:1023D000484502D306FB09F6F2E7DFF84C8000BF60
:1023E000B5FBF6F000FB165518F80010504600F04B
:1023F0001DF8DAF80C00002803DBB6FBF9F6002E16
:10240000EED15FEACB700CD0002C0AD0A74208D2E4
:1024100020215046641E00F009F8DAF80C0000286C
:10242000F2DABDE8F88F0000D943000810B5044681
:10243000D4E90130421C934205D323681954A260A9
:10244000E068401CE060D4E90102824209D12168C1
:102450002069FFF781FBA168884203D04FF0FF306D
:10246000E06010BD0020A06010BD2DE9F047C468F9
:102470001746894606464FF000083069A04201D948
:10248000051B02E0B168201A0D1AB0686D1E001B12
:10249000A84200D80546BD4200D33D4670682A4692
:1024A00020444946FDF7BFFEB0687F1B2C44A8447A
:1024B000A944A04200D10024F460002FDDD14046A1
:1024C000BDE8F0872DE9F04104468846D4E90207CB
:1024D000C51BE168606816460844B54206D9414606
:1024E000FDF7A1FEB819E060BDE8F0812A4641463B
:1024F000FDF799FE761B08EB050132466068FDF793
:1025000092FEE660F0E700000FB4054B10B503A99A
:10251000044A029800F028F810BC5DF814FB000093
:10252000752C0008D40000200907090E002804DBE0
:1025300000F1E02080F80014704700F00F0000F177
:10254000E02080F8141D704702E008C8121F08C17F
:10255000002AFAD170477047002001E001C1121F24
:10256000002AFBD1704700002DE9FF4F8DB00F46C8
:102570000546002606E025280BD0DDE90F1290471E
:102580006D1C761C28780028F5D111B03046BDE8C6
:10259000F08F0024A246A1460122E94900E004434D
:1025A00015F8013F203B02FA03F00842F7D12878E2
:1025B0002A2810D06FF02F022878A0F130010929C5
:1025C00014D80AEB8A0102EB410144F0020400EB4B
:1025D000010A6D1CF0E701CF5FEA000A03D544F45D
:1025E0000054CAF1000A44F002046D1C28782E2819
:1025F00017D115F8010F44F004042A280ED06FF00B
:102600002F022878A0F1300109290AD809EB8901A5
:1026100002EB410100EB01096D1CF2E757F8049B46
:102620006D1C28786C280FD006DC4C2817D0682841
:102630000DD06A2814D104E0742810D07A280FD164
:102640000DE044F400140AE044F4801401E044F482
:1026500040146978814202D104F580146D1C6D1C10
:1026600028786E281ED00CDC632830D004DC0028CB
:102670008BD0582811D19FE0642867D069280CD1ED
:1026800064E073282DD004DC6F2872D0702804D148
:1026900094E075286ED078286DD0DDE90F12904750
:1026A000761C4BE1C4F30250022806D0032809D05F
:1026B000042801CF09D0066040E101CFF117C0E93D
:1026C00000613BE101CF068038E1067036E117F882
:1026D000040B8DF8000000208DF80100EB4601206E
:1026E00003E057F804BB4FF0FF3061074FF00001E3
:1026F00002D40DE008F10101884649450FDA804512
:10270000F8DB1BF808100029F4D108E008F10101FA
:1027100088468142FADB1BF808100029F6D1DDE972
:102720000F23AAEB08008146214600F031F930441E
:1027300000EB080604E0DDE90F121BF8010B9047DF
:10274000B8F10108F7D221464846F2E00A21C4F365
:1027500002524FF0000B0891022A04D001CFC1179A
:10276000032A09D00AE0FF1D27F00707F7E8020156
:1027700008E02CE01EE01FE000B2C117042A01D1DE
:1027800040B2C117021E71F1000206DA0023D0EB3D
:10279000030063EB01012D2202E0220504D52B2268
:1027A0008DF82420012203E0E20701D02022F7E780
:1027B000904653E00A210BE0102109E010214FF070
:1027C000000B44F004044FF00809089103E00821CD
:1027D0004FF0000B0891C4F30252022A04D001CF3B
:1027E0000021032A06D006E0FF1D27F00707F7E8BF
:1027F000020103E080B2042A00D1C0B24FF0000809
:1028000022072BD52A78702A07D0DDF820C08CF05B
:10281000100C5CEA0B0C05D00EE040228DF8242051
:10282000012208E050EA010306D030238DF824305D
:102830008DF8252002229046089B83F0080353EA76
:102840000B030BD150EA010201D1620706D53022F9
:102850008DF824204FF00108A9F101092A78582A9F
:1028600004D038A20B9208AA0A920BE03AA2F9E728
:102870005B46089AFDF7A6FC0B9B9B5C0A9A521ECE
:102880000A92137050EA0102F2D10A98ADEB0000EF
:1028900000F1200B600702D524F4803401E04FF0F2
:1028A0000109D94502DDA9EB0B0000E0002000EB97
:1028B0000B0141440890AAEB010AE00306D4DDE9CC
:1028C0000F232146504600F063F806444FF00009FC
:1028D00008E009A911F80900DDE90F12904709F194
:1028E0000109761CC145F4DBE0030CD5DDE90F23BB
:1028F0002146504600F04CF8064404E0DDE90F1292
:1029000030209047761C0899481E08900029F5DC75
:1029100008E00A980A990078491C0A91DDE90F122B
:102920009047761CBBF10001ABF1010BF1DC2146B5
:102930005046DDE90F2300F019F806446D1C21E62E
:102940000928010030313233343536373839616285
:102950006364656600000000303132333435363749
:102960003839414243444546000000002DE9F0411A
:10297000044600251E461746880404D405E039465F
:102980002020B0476D1C641EF9D52846BDE8F081B3
:102990002DE9F041044600251E469046C80301D5A6
:1029A000302700E02027880404D505E0414638465A
:1029B000B0476D1C641EF9D52846BDE8F0810000C3
:1029C00070B50E460146154608A0FFF79DFD002490
:1029D00004E0315D06A0FFF797FD641CAC42F8D31C
:1029E000BDE8704004A0FFF78FBD00002573000014
:1029F00020253032580000000D0A00002DE9FC416E
:102A00000E46DDE9085400211F460091019112B1E4
:102A1000314616A008E023466A46394601F06EFBAF
:102A2000020005D0314617A0FFF76EFDBDE8FC811E
:102A3000284669462246FDF71AFC3A46314670B1EF
:102A400017A0FFF761FD224629461DA0FFF7B8FF3A
:102A5000224669461CA000BFFFF7B2FFE6E71CA0B4
:102A6000FFF752FD224669461EA0F5E72573206652
:102A700061696C65642C207374617475733D2564A1
:102A80000D0A000025732072656164206661696C1F
:102A900065642C207374617475733D25640D0A00A0
:102AA000257320766572696679206661696C656454
:102AB00020402030782530386C580D0A0000000086
:102AC0006578706563743A0061637475616C3A008F
:102AD0002573206F6B20402030782530386C580DDE
:102AE0000A000000726561646261636B3A00000075
:102AF0002DE9FF413B4D040071D0207900286ED1B3
:102B000001272771294638A0FFF7FEFC206801F055
:102B10001AFB28B104B03CA0BDE8F041FFF7F4BCBB
:102B200080222946206801F0C5FA18B13CA0FFF7C1
:102B3000EBFC4EE02668A5228DF808202946304699
:102B400001F054FB024602A8CDE900072B463AA14A
:102B50003046FFF753FF234E2568103645F6A52271
:102B600031462846029201F001FB0246022102A8EA
:102B7000CDE90001334633A12846FFF73FFF194E48
:102B800025682036324A31462846029201F001FB80
:102B90000246042102A8CDE9000133462DA12846B2
:102BA000FFF72CFF2F492E480E4E2568CDE9020174
:102BB000303602460B463146284601F0FDFA024601
:102BC000082102A8CDE90001334627A12846FFF7D6
:102BD00015FF206804B0BDE8F04101F080BABDE8FF
:102BE000FF81000000000E08666C61736820646558
:102BF0006D6F2073746172742040203078253038F6
:102C00006C580D0A00000000666C61736820756ED8
:102C10006C6F636B206661696C65640D0A0000006F
:102C2000666C617368206572617365206661696CAA
:102C300065640D0A00000000666C617368207538D9
:102C400000000000666C617368207531360000007A
:102C5000F0A53412666C6173682075333200000091
:102C60008877665544332211666C61736820753627
:102C70003400000001F0FEBA10B5040009D060680D
:102C8000002806D080472168BDE81040002000F0F1
:102C900089BF10BDFDF7DAFFFFF7A4F8FEF7C8FE05
:102CA000FEF7A8FEFEF7FCFE00F0C2F900F06AF99C
:102CB00002223449344800F0F1FE3249054602222E
:102CC0000831314800F0EAFE044615B1284600F00C
:102CD000CDFF14B1204600F0C9FF0C21082000F000
:102CE00025FC284C183C0028A06047D00022114643
:102CF000264800F0D3FE064600221146244800F084
:102D0000CDFE054616B1304600F0B0FF15B128469D
:102D100000F0ACFF00231F4A19461F4801F002F8DB
:102D2000064600231D4A01211D4800F0FBFF054611
:102D3000002E02DB304601F0FBF8002D02DB2846B6
:102D400001F0F6F801220021164800F0A7FE08B1B4
:102D500000F08CFF00F0B0F800F080FA0949E06064
:102D6000103102220860002008710F4800F096FE22
:102D700008B100F07BFF00F079FDFCE70BA0FFF746
:102D8000C3FBC7E718000020792C00083D4300086A
:102D900021430008C52D000880841E00354000082E
:102DA00040420F00E51A0008F12A000871756575A8
:102DB0006520637265617465206661696C65640D88
:102DC0000A0000001CB501F01BF805A1CDE90001C7
:102DD00005A306A207A10020FEF708FF1CBD000006
:102DE0001B5B306D00000000453A20001B5B313B4F
:102DF00033316D002020257325736F6E6573686F06
:102E0000742074696D65723A20256C750D0A0D0A7F
:102E10002573000010B5044600F019F908B1002030
:102E200010BD082000F022F90028F9D0002101701F
:102E3000024944700A684260086010BD60000020CA
:102E400010B5044600F00BF838B100F0FCF8012191
:102E5000217000F002F9002010BD042010BD0028F0
:102E600000D00120704770B50E460446FFF7F7FF0B
:102E700020B100F0ECF818B1062070BD042070BD40
:102E800000F0C0FF054600F0DEF8217839B1617826
:102E900009B10021217000F0E0F8002070BD00F0C1
:102EA000DCF800F0AFFF401BB04201D3022070BD40
:102EB00000F004FFE7E7000070B50120FFF7AAFF6C
:102EC0000D490028486116D0012200210B4800F06E
:102ED000E5FD054601220021094800F0DFFD04461A
:102EE00015B1284600F0C2FE002C04D02046BDE8F3
:102EF000704000F0BBBE70BD00000020292F00080C
:102F0000052F0008074810B54069002808D0FFF7D2
:102F100097FFBDE810404FF47A71002000F042BEE8
:102F200010BD0000000000200B4810B540690028CB
:102F300010D04FF47A71FFF796FF48B107A000BF99
:102F4000FFF7E2FA6421BDE81040002000F02ABE3D
:102F500008A0F5E710BD0000000000206576656E52
:102F60007420776169742074696D656F75740D0ADA
:102F7000000000006576656E742077616974206FCB
:102F80006B0D0A0010B500F083FA0C4C002820618C
:102F900012D001F03FF90AA0FFF7B6FA0EA0FFF732
:102FA000B3FA19A1206901F0A6F92069BDE8104023
:102FB00005221A4901F074B910BD0000000000207C
:102FC0000D0A4F53414C2053544D33324634206444
:102FD000656D6F0D0A0000007469636B20736F7577
:102FE0007263653A206F73616C5F696E697428293A
:102FF000202B205379735469636B20636F756E7453
:1030000065720D0A000000006F73616C20757361BA
:1030100072742064656D6F0D0A0000007C43000827
:1030200021F000410AB14FF00042114301607047A6
:1030300010B500F0E3F900F0EFF900F005FABDE893
:10304000104000F0A1BFEFF3108072B67047EFF3AD
:103050000580002800D001207047002800D162B60A
:103060007047C01C20F00300704700002DE9F047B6
:10307000040011D000F048F8224F387800280CD016
:1030800004F10800FFF7EDFF0646FFF7DCFF81467D
:103090000025B846FC682FE00020BDE8F0872068D6
:1030A00020F00041B14225D3881B08280FD9A71969
:1030B000014600223846FFF7B3FF606878601DB113
:1030C0006F600122314606E0C8F80C70F9E76DB177
:1030D0006068686001222046FFF7A2FF0020606060
:1030E0004846FFF7BAFF04F10800D6E76268C8F85F
:1030F0000C20EFE725466468002CD0D14846FFF746
:10310000ACFFC9E76400002004480078002803D120
:103110000021084600F034B8704700006400002029
:1031200070B5040029D0FFF7EFFF144D2878002870
:1031300023D0204600F07CF800281ED068680830B4
:1031400084421AD3083C204600F072F8002814D0BC
:103150002068C00F11D0FFF776FF054620680022D7
:1031600020F000412046FFF75BFF204600F028F8E2
:103170002846BDE87040FFF770BF70BD64000020B6
:1031800070B500B111B90C484FF4805121F0030122
:1031900000260A4C082904D86660A660E6602670FE
:1031A00070BDC4E9010105460022E060FFF738FF69
:1031B00001206E60207070BD280200206400002095
:1031C00070B51A4904460025C86801E00546406804
:1031D00008B1A042FAD3606035B36C60606880B11A
:1031E000216821F000410A1990420AD100680022AA
:1031F00020F0004001442046FFF712FF606840685D
:103200006060002D0FD0286820F000404119A142D5
:1032100009D12168002221F0004101442846FFF72E
:10322000FFFE6068686070BDCC60D7E76400002076
:1032300009490A7853424A6813420AD0896841B161
:10324000031E06D0904204D31144994201D90120B3
:1032500070470020704700006400002010B5054C46
:103260006068002804D10021034800F00BFF606073
:1032700010BD0000CC000020F043000870B588B0FD
:103280004FF0000614000D4607961CD006A92846EC
:1032900000F02CF8B8B128196946401E00F026F855
:1032A00088B1022005900196069800990390081AAB
:1032B000401C049007A901A8FDF70AFB002800D0D4
:1032C000012008B070BD0420FBE710B5FDF74CFBF2
:1032D000002800D0012010BD10B5100004D01A46FF
:1032E000FCF7A1FF002010BD042010BD21B1A0F10A
:1032F0000062B2F5801F01D3002070471D4A904242
:1033000001D2002032E01C4A904201D201202DE07F
:103310001A4A904201D2022028E0194A904201D272
:10332000032023E0174A904201D204201EE0164AEF
:10333000904201D2052019E0144A904201D20620A1
:1033400014E0134A904201D207200FE0114A904244
:1033500001D208200AE0104A904201D2092005E07B
:103360000E4A904201D20A2000E00B2008600120A2
:1033700070470000004000080080000800C00008FE
:103380000000010800000208000004080000060810
:103390000000080800000A0800000C0800000E08E1
:1033A00010B5FDF729FB002800D0012010BD10B595
:1033B00000230120FDF7E2FA002800D0012010BD13
:1033C00010B500230220FDF7D9FA002800D0012013
:1033D00010BD10B50320FDF7D1FA002800D0012060
:1033E00010BD10B500231846FDF7C8FA002800D01C
:1033F000012010BD00487047A4430008704700003A
:1034000040210148FDF706BC00140240802101481C
:10341000FDF700BC00140240094908684FF6FF029E
:103420001040084A104340F44070086004481430CB
:10343000016821F07F4141F0704101607047000058
:103440000CED00E00000FA0507214FF0E02000221B
:1034500002618261014A4261016170473F9002004E
:1034600000487047007A030A4FF0E02080697047F7
:103470004FF0E020406970474FF0E0200069C0F352
:10348000004070474FF0E020006900F001007047F5
:1034900010B5054C2068002804D10449044800F008
:1034A000CFFE206010BD0000CC000020D80000201E
:1034B000EC43000813B548B14FF47A73012201A917
:1034C000FEF745FA002800D001201CBD04201CBDD9
:1034D0002DE9F0410F460446114600F073F9002C27
:1034E0001DD0002F1BD0002819D0054600260468E7
:1034F00013E0204600F029FB0146BC420BD146B147
:10350000304600F04BFB2046BDE8F041002100F0C2
:1035100045BB2860F7E726460446002CE9D1BDE804
:10352000F08113460246002000F074BA38B50C460C
:103530000546FFF78CFD08B1002038BD6A462146DC
:10354000284600F02BF90028F7D00098FFF78EFDF1
:103550000028F2D001232246294600F001F838BDA8
:103560002DE9F0411C4616460F46050017D02820CD
:10357000FFF77CFD78B10021C0E90051C0E90217D6
:10358000C0E904610476C161016206490A684262C9
:103590000860BDE8F08114B12846FFF7C1FD0020A6
:1035A000F7E70000780000202DE9F04190460F4633
:1035B000064600F0BFFA04463946304600F002F9EC
:1035C00005465CB155B1204600F066FA48B1324676
:1035D0003946204600F0BDFA48BB04E00120BDE8B2
:1035E000F0810420FBE742463146384600F0CCF932
:1035F0000028F4D1286803E0A04218D000F0A5FA12
:103600000028F9D10021204600F0C8FA2E682EB912
:103610002C600CE0304600F098FA0646304600F088
:1036200094FA0028F6D12146304600F0B7FA03207C
:10363000D5E770B5044608466169C1B1D4E9001305
:10364000226903FB0211FCF7EEFD6068E168401C93
:10365000B0FBF1F201FB1200606060690025401EC2
:1036600060610221204600F0F2F8284670BD032573
:10367000FBE7F8B5074600208DF8000015460C461C
:10368000384600F09BF84042204201D10420F8BDAA
:10369000FFF7DDFC08B10620F8BD6A460321384675
:1036A000FFF73FFF9DF800100029F5D1FFF7CBFC95
:1036B000064621463846FFF7BCFF040002D0032C23
:1036C0000CD104E03046FFF7C8FC0020F8BD2DB156
:1036D0002A4603213846FFF767FF04463046FFF7C6
:1036E000BCFC2046F8BD70B504464069E2689042D3
:1036F00001D3032516E0A3682269206803FB0200BA
:10370000FCF791FDD4E90201401CB0FBF1F201FB92
:103710001200A06060690025401C60610321204602
:1037200000F095F8284670BDF8B5074600208DF8E2
:10373000000015460C46384600F040F84042204252
:1037400001D10420F8BDFFF782FC08B10620F8BDC6
:103750006A4602213846FFF7E4FE9DF80010002972
:10376000F5D1FFF770FC064621463846FFF7BBFF50
:10377000040002D0032C0CD104E03046FFF76DFCAE
:103780000020F8BD2DB12A4602213846FFF70CFF74
:1037900004463046FFF761FC2046F8BD10B540B145
:1037A00039B132B1A0FB01010023D0F1FF348B41CC
:1037B00001D2002010BD1060012010BD002800D0F3
:1037C00001207047002806D0012903D0022903D028
:1037D000032903D0002070471C3070472030704709
:1037E0002DE9F0474FF000055FEA0009A8462E4694
:1037F00026D0D9F800401CB345B1204600F0A0F90E
:103800000746284600F09CF9874201D22546B0467B
:103810002646304600F099F90400EDD185B1B8F1A3
:10382000000F28460ED000F090F90146404600F007
:10383000B5F90021284600F0B1F92846BDE8F08727
:103840000020FBE700F081F9C9F80000F1E710B5AE
:10385000FFF7B8FF002808D0FFF7C2FF002804D008
:10386000BDE81040002100F019BA10BD10B5FFF7F7
:10387000EEFB00280CD100F0EDFA0648017811B1FA
:103880004068002804D0BDE81040002000F004B8D3
:1038900010BD00007C0000202DE9F041074600F03B
:1038A000B1FA134C8046134D20784246401C2070DC
:1038B0003946286800F020F80646424639466868CE
:1038C00000F01AF8064396F0010F04D1A068401CDE
:1038D000A060042806D30020A06042463946A868AC
:1038E00000F00AF82078401E2070BDE8F08100004A
:1038F0007C000020281200202DE9F047214E92463E
:1039000089464FF00008776836E0856B04464845E5
:1039100031D0ECB1217A02291AD194F8202052B387
:1039200094F8351039BBE169BAEB010023D4012AC0
:1039300003D0022A03D0032A01D0002105E0606AE7
:1039400010B12146FFF7C4FD0221204600F011F915
:10395000207A80B94FF0010884F8088000F052FA0C
:10396000E0607460D4E900108847207A012801D112
:1039700000202072776028460028C6D14046776034
:10398000BDE8F0877C0000202DE9F041064615488F
:10399000154688464468FCB1204600F067F8E8B157
:1039A00000F030FA0746204600F01EF8C4E905751D
:1039B0007819E06184F82060C4F824806D1C0FD071
:1039C0005FF0000084F8350000200221E0632172DE
:1039D00084F83400BDE8F0810120FBE70420F9E71A
:1039E0000120EFE77C000020002805D0002100F82E
:1039F000281F4160816081737047002809D0002131
:103A000041618161C16180F82010416280F8351008
:103A1000C16370472DE9F0411D0016460F4604466C
:103A200001D00020287014B90F4844688CB120469A
:103A300000F01CF868B194F83600002807D094F81C
:103A40002800B84202D1E06AB04204D00020BDE8AC
:103A5000F0810420FBE70DB1012028702046256B82
:103A6000FFF7C2FF2846F2E77C000020002807D0BD
:103A7000084B002253F8221004E0814201D10120BA
:103A80007047896B0029F8D1521C032AF2D3002019
:103A90007047000028120020FFF7E8BF2DE9F04131
:103AA00016460F460546FFF7D2FA10B90DB1032EA0
:103AB00002D30020BDE8F0814020FFF7D7FA041EB2
:103AC000F8D0C4E900570320207266720025E56033
:103AD000256184F83450A5632046E563FFF78DFF28
:103AE0002046FFF781FF084810EB860109D0A56347
:103AF000086810B90C6004E00846816B0029FBD10E
:103B000084632046D6E700002812002010B5040088
:103B10000FD094F82020022A01D0032A04D1606A31
:103B200010B12146FFF7D4FC2046BDE81040FFF756
:103B300064BF10BD01484068704700007C00002051
:103B400008B1407A704702207047002800D0C06B4F
:103B5000704700280AD0037A022B08D190F8203051
:103B60008B4204D1406A904201D10120704700206D
:103B7000704730B400280FD090F820300024426AFB
:103B8000047231B180F82830C0E90B21012180F89E
:103B9000361030BCFFF731BF30BC7047002800D072
:103BA000C163704770B50D460446FFF750FA08B17F
:103BB000062070BD0CB90F4844682046FFF756FF39
:103BC000B0B100F01FF906462046FFF70DFFC4E92B
:103BD00005657019E061012084F820000020606212
:103BE00084F8350002212172E06384F8340070BD4E
:103BF000042070BD7C0000202DE9F0410D460446F4
:103C0000FFF725FA10B10620BDE8F0810CB916487F
:103C100044682046FFF72AFF38B100F0F3F8064663
:103C200094F83400012710B107E00420ECE7E068C5
:103C300000B93046206184F834702069054425615C
:103C4000701B0FD52046FFF7CFFEA81B6661C4E9A5
:103C50000605002084F82070606284F83500022197
:103C60002172E0630020CFE77C00002010B50446FD
:103C7000FFF7EDF908B1062010BD2046FFF7F6FE6C
:103C800050B12046FFF742FF2046FFF7ADFE00206F
:103C9000207284F8340010BD042010BD70B50D46AC
:103CA000040009D0FFF7E2FE002805D0294620468F
:103CB000BDE87040FFF75DBF70BD000010B5FFF7B5
:103CC000C6F9002809D100F0C5F80448406800286A
:103CD00003D0BDE81040FFF7DFBD10BD7C00002021
:103CE00010B50F4C607808B900F04EF96168206A91
:103CF00001446160A36AE16A1B1841F10001A362FB
:103D0000E162E168A36808444FF47A71B0FBF1F214
:103D10001A44A260B0FBF1F201FB1200E06010BD9A
:103D2000880000202DE9F05F9846154689468246B6
:103D3000FFF78DF94FF0FF3778B975B1FFF783F9C9
:103D4000124E8346002400BF56F8240040B1641C84
:103D5000102CF9DB5846FFF780F93846BDE8F09F94
:103D60002020FFF783F90028F4D00021017080F8AB
:103D70000190C0F810A0C0E90211C0E9055846F84A
:103D800024005846FFF769F92046E7E7341200207F
:103D900070B5194C607841422069014201D1002080
:103DA00070BDC06880470028FAD0206980688047CD
:103DB000054620690069804706462069806880477B
:103DC000002146B1D4E90632D31841EB01021B1A97
:103DD00062EB010203E0A069431B61EB0102074DA6
:103DE0000021A3FB050602FB056203FB0121002362
:103DF0006269FCF7E7F970BD8800002040420F00BF
:103E0000AFF3008010B5FFF71EF903498C68FFF788
:103E100024F9204610BD0000880000202DE9F04163
:103E2000FFF711F906460748856AC76AFFF7B0FF32
:103E300004463046FFF711F9281947F10001BDE8A3
:103E4000F081000088000020102801D20120704776
:103E5000002070472DE9F047234E002730780028D6
:103E60003FD0FFF7DBFFD6E90C2305460C46801A4E
:103E7000994136D30026DFF87480B14658F8260001
:103E8000E8B10178D9B1D0E90212691A74EB0201E4
:103E900015D34178012709B30369FBB14FEA090C37
:103EA000D0E90221D21841EB0C01C0E90221AA1A83
:103EB00074EB0101F4D2416909B180698847761C2D
:103EC000102EDBDB002F0CD0FFF7BDF8044600F00E
:103ED0000FF82046BDE8F047FFF7BFB880F8009024
:103EE000E9E7BDE8F08700008800002034120020D8
:103EF000F0B500240C4D20462146224655F82230CC
:103F000053B11E7846B124B1D3E902763F1A8E41EF
:103F100002D2D3E902010124521C102AEEDB034A2B
:103F20001470C2E90C01F0BD34120020880000209A
:103F300070B50446FFF78BF808B1002070BD20462D
:103F4000FFF782FF0028F9D0FFF77DF805460D48FE
:103F500050F8244094B1606980B1FFF75FFF226997
:103F6000801841F10001C4E9020101202070FFF72F
:103F7000BFFF2846FFF771F8012070BD2846FFF704
:103F80006CF8DAE7341200202DE9F047FFF732FA37
:103F9000264C4FF0000A050084F801A0C4F810A0D8
:103FA000C4F814A0C4F818A04FF47A70C4E907A0AC
:103FB0004FF001091FD0286820B3696811B3A968C0
:103FC00001B3E968F1B12969E1B180470646686843
:103FD00080478046471CAEB1A7B1154A5FEA5A0137
:103FE0004FEA3600E7FB020132464FF00003FCF7D0
:103FF000E9F868B10DE0A078002801D184F80290BA
:10400000BDE8F087E0780028FAD184F80390F7E75C
:104010000120C4E9077004F1100181E8600184F80F
:10402000019084F802A084F803A0E9E7880000204A
:1040300040420F001CB5FFF7E3FE05A1CDE90001EA
:1040400005A306A207A10020FDF7D0FD1CBD0000BE
:104050001B5B306D00000000493A20001B5B313BC8
:1040600033326D00202025732573706572696F648B
:1040700069632074696D65723A20256C750D0A0DAF
:104080000A25730070B50D460446FEF7E0FF60B9DF
:104090005CB10C20FEF7EAFF002805D00449C0E916
:1040A00000450A688260086070BD002070BD000095
:1040B000C800002070B515460E46044600F052F8C0
:1040C0004042284209D0206838B183682BB12A4683
:1040D00031466068BDE870401847042070BD10B5D7
:1040E000044600F03FF838B1206828B1416819B1A2
:1040F0006068BDE810400847042010BD2DE9F0417C
:104100001D4616460F46044600F02CF84042304249
:1041100002D10420BDE8F0816DB1206868B1D0F80B
:104120000CC0BCF1000F08D02B46324639466068FF
:10413000BDE8F04160470020ECE72A4639463046AA
:10414000FCF771F8F7E710B5044600F00BF838B14A
:10415000206828B1016819B16068BDE810400847BF
:10416000042010BD002800D00120704770B515460E
:104170000E460446FFF7F6FF48B1206838B14369A0
:104180002BB12A4631466068BDE8704018470420CC
:1041900070BD70B515460E460446FFF7E3FF48B103
:1041A000206838B183692BB12A4631466068BDE882
:1041B00070401847042070BD2DE9F04115461E4699
:1041C0000F460446FFF7CEFF68B1206858B1D0F81B
:1041D0001CC0BCF1000F06D02A4633463946606841
:1041E000BDE8F04160470420BDE8F08170B5154698
:1041F0000E460446FFF7B6FF48B1206838B10369A0
:104200002BB12A4631466068BDE87040184704204B
:1042100070BD000010B50446FEF719FF08B1062076
:1042200010BD204600F038F830B104484168A14282
:1042300000D04460002010BD042010BDC00000204C
:1042400070B50D460446FEF702FF70B96CB12068E8
:1042500058B10C20FEF70AFF002805D00449C0E938
:1042600000450A688260086070BD002070BD0000D3
:10427000C000002070B5044606484FF0FF35406886
:1042800018B1E1B200F026F808B1284670BD20460A
:1042900070BD0000C0000020002800D00120704741
:1042A0002DE9F04116460D460746FFF7F5FF40425F
:1042B000284202D10420BDE8F081002406E0295DF7
:1042C000384600F007F80028F5D1641CB442F6D354
:1042D0000020F0E770B50D460446FFF7DDFF40B162
:1042E000206830B1026822B129466068BDE870409C
:1042F0001047042070BD70B50C460546FFF7CCFF93
:104300004042204207D1042070BD2846FFF7E2FF5B
:104310000028F9D1641C21780029F6D1002070BD55
:104320000EB505488068002804D04FF0FF3269467A
:10433000FFF79FF90EBD0000000000203EB50E49BA
:104340008868002816D04A680092521C4A600021F2
:104350006A46009B54180B44491C23710829F8D362
:104360004FF0FF326946FFF7DFF94FF47A71002012
:10437000FFF742FC3EBD0000000000206162630DBB
:104380000A000610160006101600000000000000CB
:1043900000010203040607080900000000010203EF
:1043A000040000006134000871340008693400081A
:1043B00085340008793400083031323334353637EB
:1043C000383941424344454600000000000054543F
:1043D0005220524547474553003031323334353649
:1043E000373839414243444546000000B53400089F
:1043F000A1330008CB3200087D320008D932000812
:10440000E3330008AF330008C1330008D33300089A
:104410003044000800000020D800000048250008B3
:1044200008450008D8000020581A00005825000848
:10443000000000000000000000000000000000007C
:104440000000000000000000F4010000013400083A
:10445000E80300000D340008000000000000000028
:10446000000000000000000000000000000000004C
:10447000010000000000000000000000000000003B
:104480000100000010000000000000000024F40003
:10449000000000000000000000000000000000001C
:1044A000000000000000000000000000000000000C
:1044B00000000000000000000000000000000000FC
:1044C00000000000000000000000000000000000EC
:1044D0000000000000000000E803000000000000F1
:1044E00000000000000000000000000000000000CC
:1044F00000000000000000000000000000000000BC
:084500000000000000000000B3
:040000050800018965
:00000001FF
